{
	"FirstSmartContract.sol": {
		"FirstSmartContrat": {
			"abi": [
				{
					"inputs": [],
					"name": "age",
					"outputs": [
						{
							"internalType": "uint256",
							"name": "",
							"type": "uint256"
						}
					],
					"stateMutability": "view",
					"type": "function"
				},
				{
					"inputs": [],
					"name": "college",
					"outputs": [
						{
							"internalType": "string",
							"name": "",
							"type": "string"
						}
					],
					"stateMutability": "view",
					"type": "function"
				},
				{
					"inputs": [],
					"name": "getAge",
					"outputs": [
						{
							"internalType": "uint256",
							"name": "",
							"type": "uint256"
						}
					],
					"stateMutability": "view",
					"type": "function"
				},
				{
					"inputs": [],
					"name": "getCollege",
					"outputs": [
						{
							"internalType": "string",
							"name": "",
							"type": "string"
						}
					],
					"stateMutability": "view",
					"type": "function"
				},
				{
					"inputs": [],
					"name": "getName",
					"outputs": [
						{
							"internalType": "string",
							"name": "",
							"type": "string"
						}
					],
					"stateMutability": "view",
					"type": "function"
				},
				{
					"inputs": [],
					"name": "getProfession",
					"outputs": [
						{
							"internalType": "string",
							"name": "",
							"type": "string"
						}
					],
					"stateMutability": "view",
					"type": "function"
				},
				{
					"inputs": [],
					"name": "name",
					"outputs": [
						{
							"internalType": "string",
							"name": "",
							"type": "string"
						}
					],
					"stateMutability": "view",
					"type": "function"
				},
				{
					"inputs": [],
					"name": "profession",
					"outputs": [
						{
							"internalType": "string",
							"name": "",
							"type": "string"
						}
					],
					"stateMutability": "view",
					"type": "function"
				},
				{
					"inputs": [
						{
							"internalType": "string",
							"name": "randomName",
							"type": "string"
						},
						{
							"internalType": "string",
							"name": "randomCollege",
							"type": "string"
						},
						{
							"internalType": "string",
							"name": "randomProfession",
							"type": "string"
						},
						{
							"internalType": "uint256",
							"name": "randomAge",
							"type": "uint256"
						}
					],
					"name": "setData",
					"outputs": [],
					"stateMutability": "nonpayable",
					"type": "function"
				}
			],
			"devdoc": {
				"kind": "dev",
				"methods": {},
				"version": 1
			},
			"evm": {
				"assembly": "    /* \"FirstSmartContract.sol\":66:877  contract FirstSmartContrat { //smart contract's name... */\n  mstore(0x40, 0x80)\n  callvalue\n  dup1\n  iszero\n  tag_1\n  jumpi\n  revert(0x00, 0x00)\ntag_1:\n  pop\n  dataSize(sub_0)\n  dup1\n  dataOffset(sub_0)\n  0x00\n  codecopy\n  0x00\n  return\nstop\n\nsub_0: assembly {\n        /* \"FirstSmartContract.sol\":66:877  contract FirstSmartContrat { //smart contract's name... */\n      mstore(0x40, 0x80)\n      callvalue\n      dup1\n      iszero\n      tag_1\n      jumpi\n      revert(0x00, 0x00)\n    tag_1:\n      pop\n      jumpi(tag_2, lt(calldatasize, 0x04))\n      shr(0xe0, calldataload(0x00))\n      dup1\n      0x4ba5c8ca\n      gt\n      tag_12\n      jumpi\n      dup1\n      0x4ba5c8ca\n      eq\n      tag_7\n      jumpi\n      dup1\n      0x967e6e65\n      eq\n      tag_8\n      jumpi\n      dup1\n      0x9e9d17b4\n      eq\n      tag_9\n      jumpi\n      dup1\n      0xbd037c93\n      eq\n      tag_10\n      jumpi\n      dup1\n      0xbfe0695c\n      eq\n      tag_11\n      jumpi\n      jump(tag_2)\n    tag_12:\n      dup1\n      0x06fdde03\n      eq\n      tag_3\n      jumpi\n      dup1\n      0x17d7de7c\n      eq\n      tag_4\n      jumpi\n      dup1\n      0x262a9dff\n      eq\n      tag_5\n      jumpi\n      dup1\n      0x38d86406\n      eq\n      tag_6\n      jumpi\n    tag_2:\n      revert(0x00, 0x00)\n        /* \"FirstSmartContract.sol\":124:142  string public name */\n    tag_3:\n      tag_13\n      tag_14\n      jump\t// in\n    tag_13:\n      mload(0x40)\n      tag_15\n      swap2\n      swap1\n      tag_16\n      jump\t// in\n    tag_15:\n      mload(0x40)\n      dup1\n      swap2\n      sub\n      swap1\n      return\n        /* \"FirstSmartContract.sol\":503:588  function getName() public view returns (string memory) {... */\n    tag_4:\n      tag_17\n      tag_18\n      jump\t// in\n    tag_17:\n      mload(0x40)\n      tag_19\n      swap2\n      swap1\n      tag_16\n      jump\t// in\n    tag_19:\n      mload(0x40)\n      dup1\n      swap2\n      sub\n      swap1\n      return\n        /* \"FirstSmartContract.sol\":208:223  uint public age */\n    tag_5:\n      tag_20\n      tag_21\n      jump\t// in\n    tag_20:\n      mload(0x40)\n      tag_22\n      swap2\n      swap1\n      tag_23\n      jump\t// in\n    tag_22:\n      mload(0x40)\n      dup1\n      swap2\n      sub\n      swap1\n      return\n        /* \"FirstSmartContract.sol\":149:170  string public college */\n    tag_6:\n      tag_24\n      tag_25\n      jump\t// in\n    tag_24:\n      mload(0x40)\n      tag_26\n      swap2\n      swap1\n      tag_16\n      jump\t// in\n    tag_26:\n      mload(0x40)\n      dup1\n      swap2\n      sub\n      swap1\n      return\n        /* \"FirstSmartContract.sol\":596:687  function getCollege() public view returns (string memory) {... */\n    tag_7:\n      tag_27\n      tag_28\n      jump\t// in\n    tag_27:\n      mload(0x40)\n      tag_29\n      swap2\n      swap1\n      tag_16\n      jump\t// in\n    tag_29:\n      mload(0x40)\n      dup1\n      swap2\n      sub\n      swap1\n      return\n        /* \"FirstSmartContract.sol\":800:874  function getAge() public view returns (uint) {... */\n    tag_8:\n      tag_30\n      tag_31\n      jump\t// in\n    tag_30:\n      mload(0x40)\n      tag_32\n      swap2\n      swap1\n      tag_23\n      jump\t// in\n    tag_32:\n      mload(0x40)\n      dup1\n      swap2\n      sub\n      swap1\n      return\n        /* \"FirstSmartContract.sol\":695:792  function getProfession() public view returns (string memory) {... */\n    tag_9:\n      tag_33\n      tag_34\n      jump\t// in\n    tag_33:\n      mload(0x40)\n      tag_35\n      swap2\n      swap1\n      tag_16\n      jump\t// in\n    tag_35:\n      mload(0x40)\n      dup1\n      swap2\n      sub\n      swap1\n      return\n        /* \"FirstSmartContract.sol\":177:201  string public profession */\n    tag_10:\n      tag_36\n      tag_37\n      jump\t// in\n    tag_36:\n      mload(0x40)\n      tag_38\n      swap2\n      swap1\n      tag_16\n      jump\t// in\n    tag_38:\n      mload(0x40)\n      dup1\n      swap2\n      sub\n      swap1\n      return\n        /* \"FirstSmartContract.sol\":232:495  function setData(string memory randomName, string memory randomCollege, string memory randomProfession, uint randomAge) public {... */\n    tag_11:\n      tag_39\n      0x04\n      dup1\n      calldatasize\n      sub\n      dup2\n      add\n      swap1\n      tag_40\n      swap2\n      swap1\n      tag_41\n      jump\t// in\n    tag_40:\n      tag_42\n      jump\t// in\n    tag_39:\n      stop\n        /* \"FirstSmartContract.sol\":124:142  string public name */\n    tag_14:\n      0x00\n      dup1\n      sload\n      tag_43\n      swap1\n      tag_44\n      jump\t// in\n    tag_43:\n      dup1\n      0x1f\n      add\n      0x20\n      dup1\n      swap2\n      div\n      mul\n      0x20\n      add\n      mload(0x40)\n      swap1\n      dup2\n      add\n      0x40\n      mstore\n      dup1\n      swap3\n      swap2\n      swap1\n      dup2\n      dup2\n      mstore\n      0x20\n      add\n      dup3\n      dup1\n      sload\n      tag_45\n      swap1\n      tag_44\n      jump\t// in\n    tag_45:\n      dup1\n      iszero\n      tag_46\n      jumpi\n      dup1\n      0x1f\n      lt\n      tag_47\n      jumpi\n      0x0100\n      dup1\n      dup4\n      sload\n      div\n      mul\n      dup4\n      mstore\n      swap2\n      0x20\n      add\n      swap2\n      jump(tag_46)\n    tag_47:\n      dup3\n      add\n      swap2\n      swap1\n      0x00\n      mstore\n      keccak256(0x00, 0x20)\n      swap1\n    tag_48:\n      dup2\n      sload\n      dup2\n      mstore\n      swap1\n      0x01\n      add\n      swap1\n      0x20\n      add\n      dup1\n      dup4\n      gt\n      tag_48\n      jumpi\n      dup3\n      swap1\n      sub\n      0x1f\n      and\n      dup3\n      add\n      swap2\n    tag_46:\n      pop\n      pop\n      pop\n      pop\n      pop\n      dup2\n      jump\t// out\n        /* \"FirstSmartContract.sol\":503:588  function getName() public view returns (string memory) {... */\n    tag_18:\n        /* \"FirstSmartContract.sol\":543:556  string memory */\n      0x60\n        /* \"FirstSmartContract.sol\":576:580  name */\n      0x00\n        /* \"FirstSmartContract.sol\":569:580  return name */\n      dup1\n      sload\n      tag_50\n      swap1\n      tag_44\n      jump\t// in\n    tag_50:\n      dup1\n      0x1f\n      add\n      0x20\n      dup1\n      swap2\n      div\n      mul\n      0x20\n      add\n      mload(0x40)\n      swap1\n      dup2\n      add\n      0x40\n      mstore\n      dup1\n      swap3\n      swap2\n      swap1\n      dup2\n      dup2\n      mstore\n      0x20\n      add\n      dup3\n      dup1\n      sload\n      tag_51\n      swap1\n      tag_44\n      jump\t// in\n    tag_51:\n      dup1\n      iszero\n      tag_52\n      jumpi\n      dup1\n      0x1f\n      lt\n      tag_53\n      jumpi\n      0x0100\n      dup1\n      dup4\n      sload\n      div\n      mul\n      dup4\n      mstore\n      swap2\n      0x20\n      add\n      swap2\n      jump(tag_52)\n    tag_53:\n      dup3\n      add\n      swap2\n      swap1\n      0x00\n      mstore\n      keccak256(0x00, 0x20)\n      swap1\n    tag_54:\n      dup2\n      sload\n      dup2\n      mstore\n      swap1\n      0x01\n      add\n      swap1\n      0x20\n      add\n      dup1\n      dup4\n      gt\n      tag_54\n      jumpi\n      dup3\n      swap1\n      sub\n      0x1f\n      and\n      dup3\n      add\n      swap2\n    tag_52:\n      pop\n      pop\n      pop\n      pop\n      pop\n      swap1\n      pop\n        /* \"FirstSmartContract.sol\":503:588  function getName() public view returns (string memory) {... */\n      swap1\n      jump\t// out\n        /* \"FirstSmartContract.sol\":208:223  uint public age */\n    tag_21:\n      sload(0x03)\n      dup2\n      jump\t// out\n        /* \"FirstSmartContract.sol\":149:170  string public college */\n    tag_25:\n      0x01\n      dup1\n      sload\n      tag_55\n      swap1\n      tag_44\n      jump\t// in\n    tag_55:\n      dup1\n      0x1f\n      add\n      0x20\n      dup1\n      swap2\n      div\n      mul\n      0x20\n      add\n      mload(0x40)\n      swap1\n      dup2\n      add\n      0x40\n      mstore\n      dup1\n      swap3\n      swap2\n      swap1\n      dup2\n      dup2\n      mstore\n      0x20\n      add\n      dup3\n      dup1\n      sload\n      tag_56\n      swap1\n      tag_44\n      jump\t// in\n    tag_56:\n      dup1\n      iszero\n      tag_57\n      jumpi\n      dup1\n      0x1f\n      lt\n      tag_58\n      jumpi\n      0x0100\n      dup1\n      dup4\n      sload\n      div\n      mul\n      dup4\n      mstore\n      swap2\n      0x20\n      add\n      swap2\n      jump(tag_57)\n    tag_58:\n      dup3\n      add\n      swap2\n      swap1\n      0x00\n      mstore\n      keccak256(0x00, 0x20)\n      swap1\n    tag_59:\n      dup2\n      sload\n      dup2\n      mstore\n      swap1\n      0x01\n      add\n      swap1\n      0x20\n      add\n      dup1\n      dup4\n      gt\n      tag_59\n      jumpi\n      dup3\n      swap1\n      sub\n      0x1f\n      and\n      dup3\n      add\n      swap2\n    tag_57:\n      pop\n      pop\n      pop\n      pop\n      pop\n      dup2\n      jump\t// out\n        /* \"FirstSmartContract.sol\":596:687  function getCollege() public view returns (string memory) {... */\n    tag_28:\n        /* \"FirstSmartContract.sol\":639:652  string memory */\n      0x60\n        /* \"FirstSmartContract.sol\":672:679  college */\n      0x01\n        /* \"FirstSmartContract.sol\":665:679  return college */\n      dup1\n      sload\n      tag_61\n      swap1\n      tag_44\n      jump\t// in\n    tag_61:\n      dup1\n      0x1f\n      add\n      0x20\n      dup1\n      swap2\n      div\n      mul\n      0x20\n      add\n      mload(0x40)\n      swap1\n      dup2\n      add\n      0x40\n      mstore\n      dup1\n      swap3\n      swap2\n      swap1\n      dup2\n      dup2\n      mstore\n      0x20\n      add\n      dup3\n      dup1\n      sload\n      tag_62\n      swap1\n      tag_44\n      jump\t// in\n    tag_62:\n      dup1\n      iszero\n      tag_63\n      jumpi\n      dup1\n      0x1f\n      lt\n      tag_64\n      jumpi\n      0x0100\n      dup1\n      dup4\n      sload\n      div\n      mul\n      dup4\n      mstore\n      swap2\n      0x20\n      add\n      swap2\n      jump(tag_63)\n    tag_64:\n      dup3\n      add\n      swap2\n      swap1\n      0x00\n      mstore\n      keccak256(0x00, 0x20)\n      swap1\n    tag_65:\n      dup2\n      sload\n      dup2\n      mstore\n      swap1\n      0x01\n      add\n      swap1\n      0x20\n      add\n      dup1\n      dup4\n      gt\n      tag_65\n      jumpi\n      dup3\n      swap1\n      sub\n      0x1f\n      and\n      dup3\n      add\n      swap2\n    tag_63:\n      pop\n      pop\n      pop\n      pop\n      pop\n      swap1\n      pop\n        /* \"FirstSmartContract.sol\":596:687  function getCollege() public view returns (string memory) {... */\n      swap1\n      jump\t// out\n        /* \"FirstSmartContract.sol\":800:874  function getAge() public view returns (uint) {... */\n    tag_31:\n        /* \"FirstSmartContract.sol\":839:843  uint */\n      0x00\n        /* \"FirstSmartContract.sol\":863:866  age */\n      sload(0x03)\n        /* \"FirstSmartContract.sol\":856:866  return age */\n      swap1\n      pop\n        /* \"FirstSmartContract.sol\":800:874  function getAge() public view returns (uint) {... */\n      swap1\n      jump\t// out\n        /* \"FirstSmartContract.sol\":695:792  function getProfession() public view returns (string memory) {... */\n    tag_34:\n        /* \"FirstSmartContract.sol\":741:754  string memory */\n      0x60\n        /* \"FirstSmartContract.sol\":774:784  profession */\n      0x02\n        /* \"FirstSmartContract.sol\":767:784  return profession */\n      dup1\n      sload\n      tag_68\n      swap1\n      tag_44\n      jump\t// in\n    tag_68:\n      dup1\n      0x1f\n      add\n      0x20\n      dup1\n      swap2\n      div\n      mul\n      0x20\n      add\n      mload(0x40)\n      swap1\n      dup2\n      add\n      0x40\n      mstore\n      dup1\n      swap3\n      swap2\n      swap1\n      dup2\n      dup2\n      mstore\n      0x20\n      add\n      dup3\n      dup1\n      sload\n      tag_69\n      swap1\n      tag_44\n      jump\t// in\n    tag_69:\n      dup1\n      iszero\n      tag_70\n      jumpi\n      dup1\n      0x1f\n      lt\n      tag_71\n      jumpi\n      0x0100\n      dup1\n      dup4\n      sload\n      div\n      mul\n      dup4\n      mstore\n      swap2\n      0x20\n      add\n      swap2\n      jump(tag_70)\n    tag_71:\n      dup3\n      add\n      swap2\n      swap1\n      0x00\n      mstore\n      keccak256(0x00, 0x20)\n      swap1\n    tag_72:\n      dup2\n      sload\n      dup2\n      mstore\n      swap1\n      0x01\n      add\n      swap1\n      0x20\n      add\n      dup1\n      dup4\n      gt\n      tag_72\n      jumpi\n      dup3\n      swap1\n      sub\n      0x1f\n      and\n      dup3\n      add\n      swap2\n    tag_70:\n      pop\n      pop\n      pop\n      pop\n      pop\n      swap1\n      pop\n        /* \"FirstSmartContract.sol\":695:792  function getProfession() public view returns (string memory) {... */\n      swap1\n      jump\t// out\n        /* \"FirstSmartContract.sol\":177:201  string public profession */\n    tag_37:\n      0x02\n      dup1\n      sload\n      tag_73\n      swap1\n      tag_44\n      jump\t// in\n    tag_73:\n      dup1\n      0x1f\n      add\n      0x20\n      dup1\n      swap2\n      div\n      mul\n      0x20\n      add\n      mload(0x40)\n      swap1\n      dup2\n      add\n      0x40\n      mstore\n      dup1\n      swap3\n      swap2\n      swap1\n      dup2\n      dup2\n      mstore\n      0x20\n      add\n      dup3\n      dup1\n      sload\n      tag_74\n      swap1\n      tag_44\n      jump\t// in\n    tag_74:\n      dup1\n      iszero\n      tag_75\n      jumpi\n      dup1\n      0x1f\n      lt\n      tag_76\n      jumpi\n      0x0100\n      dup1\n      dup4\n      sload\n      div\n      mul\n      dup4\n      mstore\n      swap2\n      0x20\n      add\n      swap2\n      jump(tag_75)\n    tag_76:\n      dup3\n      add\n      swap2\n      swap1\n      0x00\n      mstore\n      keccak256(0x00, 0x20)\n      swap1\n    tag_77:\n      dup2\n      sload\n      dup2\n      mstore\n      swap1\n      0x01\n      add\n      swap1\n      0x20\n      add\n      dup1\n      dup4\n      gt\n      tag_77\n      jumpi\n      dup3\n      swap1\n      sub\n      0x1f\n      and\n      dup3\n      add\n      swap2\n    tag_75:\n      pop\n      pop\n      pop\n      pop\n      pop\n      dup2\n      jump\t// out\n        /* \"FirstSmartContract.sol\":232:495  function setData(string memory randomName, string memory randomCollege, string memory randomProfession, uint randomAge) public {... */\n    tag_42:\n        /* \"FirstSmartContract.sol\":377:387  randomName */\n      dup4\n        /* \"FirstSmartContract.sol\":370:374  name */\n      0x00\n        /* \"FirstSmartContract.sol\":370:387  name = randomName */\n      swap1\n      dup2\n      tag_79\n      swap2\n      swap1\n      tag_80\n      jump\t// in\n    tag_79:\n      pop\n        /* \"FirstSmartContract.sol\":408:421  randomCollege */\n      dup3\n        /* \"FirstSmartContract.sol\":398:405  college */\n      0x01\n        /* \"FirstSmartContract.sol\":398:421  college = randomCollege */\n      swap1\n      dup2\n      tag_81\n      swap2\n      swap1\n      tag_80\n      jump\t// in\n    tag_81:\n      pop\n        /* \"FirstSmartContract.sol\":445:461  randomProfession */\n      dup2\n        /* \"FirstSmartContract.sol\":432:442  profession */\n      0x02\n        /* \"FirstSmartContract.sol\":432:461  profession = randomProfession */\n      swap1\n      dup2\n      tag_82\n      swap2\n      swap1\n      tag_80\n      jump\t// in\n    tag_82:\n      pop\n        /* \"FirstSmartContract.sol\":478:487  randomAge */\n      dup1\n        /* \"FirstSmartContract.sol\":472:475  age */\n      0x03\n        /* \"FirstSmartContract.sol\":472:487  age = randomAge */\n      dup2\n      swap1\n      sstore\n      pop\n        /* \"FirstSmartContract.sol\":232:495  function setData(string memory randomName, string memory randomCollege, string memory randomProfession, uint randomAge) public {... */\n      pop\n      pop\n      pop\n      pop\n      jump\t// out\n        /* \"#utility.yul\":7:106   */\n    tag_83:\n        /* \"#utility.yul\":59:65   */\n      0x00\n        /* \"#utility.yul\":93:98   */\n      dup2\n        /* \"#utility.yul\":87:99   */\n      mload\n        /* \"#utility.yul\":77:99   */\n      swap1\n      pop\n        /* \"#utility.yul\":7:106   */\n      swap2\n      swap1\n      pop\n      jump\t// out\n        /* \"#utility.yul\":112:281   */\n    tag_84:\n        /* \"#utility.yul\":196:207   */\n      0x00\n        /* \"#utility.yul\":230:236   */\n      dup3\n        /* \"#utility.yul\":225:228   */\n      dup3\n        /* \"#utility.yul\":218:237   */\n      mstore\n        /* \"#utility.yul\":270:274   */\n      0x20\n        /* \"#utility.yul\":265:268   */\n      dup3\n        /* \"#utility.yul\":261:275   */\n      add\n        /* \"#utility.yul\":246:275   */\n      swap1\n      pop\n        /* \"#utility.yul\":112:281   */\n      swap3\n      swap2\n      pop\n      pop\n      jump\t// out\n        /* \"#utility.yul\":287:426   */\n    tag_85:\n        /* \"#utility.yul\":376:382   */\n      dup3\n        /* \"#utility.yul\":371:374   */\n      dup2\n        /* \"#utility.yul\":366:369   */\n      dup4\n        /* \"#utility.yul\":360:383   */\n      mcopy\n        /* \"#utility.yul\":417:418   */\n      0x00\n        /* \"#utility.yul\":408:414   */\n      dup4\n        /* \"#utility.yul\":403:406   */\n      dup4\n        /* \"#utility.yul\":399:415   */\n      add\n        /* \"#utility.yul\":392:419   */\n      mstore\n        /* \"#utility.yul\":287:426   */\n      pop\n      pop\n      pop\n      jump\t// out\n        /* \"#utility.yul\":432:534   */\n    tag_86:\n        /* \"#utility.yul\":473:479   */\n      0x00\n        /* \"#utility.yul\":524:526   */\n      0x1f\n        /* \"#utility.yul\":520:527   */\n      not\n        /* \"#utility.yul\":515:517   */\n      0x1f\n        /* \"#utility.yul\":508:513   */\n      dup4\n        /* \"#utility.yul\":504:518   */\n      add\n        /* \"#utility.yul\":500:528   */\n      and\n        /* \"#utility.yul\":490:528   */\n      swap1\n      pop\n        /* \"#utility.yul\":432:534   */\n      swap2\n      swap1\n      pop\n      jump\t// out\n        /* \"#utility.yul\":540:917   */\n    tag_87:\n        /* \"#utility.yul\":628:631   */\n      0x00\n        /* \"#utility.yul\":656:695   */\n      tag_126\n        /* \"#utility.yul\":689:694   */\n      dup3\n        /* \"#utility.yul\":656:695   */\n      tag_83\n      jump\t// in\n    tag_126:\n        /* \"#utility.yul\":711:782   */\n      tag_127\n        /* \"#utility.yul\":775:781   */\n      dup2\n        /* \"#utility.yul\":770:773   */\n      dup6\n        /* \"#utility.yul\":711:782   */\n      tag_84\n      jump\t// in\n    tag_127:\n        /* \"#utility.yul\":704:782   */\n      swap4\n      pop\n        /* \"#utility.yul\":791:856   */\n      tag_128\n        /* \"#utility.yul\":849:855   */\n      dup2\n        /* \"#utility.yul\":844:847   */\n      dup6\n        /* \"#utility.yul\":837:841   */\n      0x20\n        /* \"#utility.yul\":830:835   */\n      dup7\n        /* \"#utility.yul\":826:842   */\n      add\n        /* \"#utility.yul\":791:856   */\n      tag_85\n      jump\t// in\n    tag_128:\n        /* \"#utility.yul\":881:910   */\n      tag_129\n        /* \"#utility.yul\":903:909   */\n      dup2\n        /* \"#utility.yul\":881:910   */\n      tag_86\n      jump\t// in\n    tag_129:\n        /* \"#utility.yul\":876:879   */\n      dup5\n        /* \"#utility.yul\":872:911   */\n      add\n        /* \"#utility.yul\":865:911   */\n      swap2\n      pop\n        /* \"#utility.yul\":632:917   */\n      pop\n        /* \"#utility.yul\":540:917   */\n      swap3\n      swap2\n      pop\n      pop\n      jump\t// out\n        /* \"#utility.yul\":923:1236   */\n    tag_16:\n        /* \"#utility.yul\":1036:1040   */\n      0x00\n        /* \"#utility.yul\":1074:1076   */\n      0x20\n        /* \"#utility.yul\":1063:1072   */\n      dup3\n        /* \"#utility.yul\":1059:1077   */\n      add\n        /* \"#utility.yul\":1051:1077   */\n      swap1\n      pop\n        /* \"#utility.yul\":1123:1132   */\n      dup2\n        /* \"#utility.yul\":1117:1121   */\n      dup2\n        /* \"#utility.yul\":1113:1133   */\n      sub\n        /* \"#utility.yul\":1109:1110   */\n      0x00\n        /* \"#utility.yul\":1098:1107   */\n      dup4\n        /* \"#utility.yul\":1094:1111   */\n      add\n        /* \"#utility.yul\":1087:1134   */\n      mstore\n        /* \"#utility.yul\":1151:1229   */\n      tag_131\n        /* \"#utility.yul\":1224:1228   */\n      dup2\n        /* \"#utility.yul\":1215:1221   */\n      dup5\n        /* \"#utility.yul\":1151:1229   */\n      tag_87\n      jump\t// in\n    tag_131:\n        /* \"#utility.yul\":1143:1229   */\n      swap1\n      pop\n        /* \"#utility.yul\":923:1236   */\n      swap3\n      swap2\n      pop\n      pop\n      jump\t// out\n        /* \"#utility.yul\":1242:1319   */\n    tag_88:\n        /* \"#utility.yul\":1279:1286   */\n      0x00\n        /* \"#utility.yul\":1308:1313   */\n      dup2\n        /* \"#utility.yul\":1297:1313   */\n      swap1\n      pop\n        /* \"#utility.yul\":1242:1319   */\n      swap2\n      swap1\n      pop\n      jump\t// out\n        /* \"#utility.yul\":1325:1443   */\n    tag_89:\n        /* \"#utility.yul\":1412:1436   */\n      tag_134\n        /* \"#utility.yul\":1430:1435   */\n      dup2\n        /* \"#utility.yul\":1412:1436   */\n      tag_88\n      jump\t// in\n    tag_134:\n        /* \"#utility.yul\":1407:1410   */\n      dup3\n        /* \"#utility.yul\":1400:1437   */\n      mstore\n        /* \"#utility.yul\":1325:1443   */\n      pop\n      pop\n      jump\t// out\n        /* \"#utility.yul\":1449:1671   */\n    tag_23:\n        /* \"#utility.yul\":1542:1546   */\n      0x00\n        /* \"#utility.yul\":1580:1582   */\n      0x20\n        /* \"#utility.yul\":1569:1578   */\n      dup3\n        /* \"#utility.yul\":1565:1583   */\n      add\n        /* \"#utility.yul\":1557:1583   */\n      swap1\n      pop\n        /* \"#utility.yul\":1593:1664   */\n      tag_136\n        /* \"#utility.yul\":1661:1662   */\n      0x00\n        /* \"#utility.yul\":1650:1659   */\n      dup4\n        /* \"#utility.yul\":1646:1663   */\n      add\n        /* \"#utility.yul\":1637:1643   */\n      dup5\n        /* \"#utility.yul\":1593:1664   */\n      tag_89\n      jump\t// in\n    tag_136:\n        /* \"#utility.yul\":1449:1671   */\n      swap3\n      swap2\n      pop\n      pop\n      jump\t// out\n        /* \"#utility.yul\":1677:1752   */\n    tag_90:\n        /* \"#utility.yul\":1710:1716   */\n      0x00\n        /* \"#utility.yul\":1743:1745   */\n      0x40\n        /* \"#utility.yul\":1737:1746   */\n      mload\n        /* \"#utility.yul\":1727:1746   */\n      swap1\n      pop\n        /* \"#utility.yul\":1677:1752   */\n      swap1\n      jump\t// out\n        /* \"#utility.yul\":1758:1875   */\n    tag_91:\n        /* \"#utility.yul\":1867:1868   */\n      0x00\n        /* \"#utility.yul\":1864:1865   */\n      0x00\n        /* \"#utility.yul\":1857:1869   */\n      revert\n        /* \"#utility.yul\":1881:1998   */\n    tag_92:\n        /* \"#utility.yul\":1990:1991   */\n      0x00\n        /* \"#utility.yul\":1987:1988   */\n      0x00\n        /* \"#utility.yul\":1980:1992   */\n      revert\n        /* \"#utility.yul\":2004:2121   */\n    tag_93:\n        /* \"#utility.yul\":2113:2114   */\n      0x00\n        /* \"#utility.yul\":2110:2111   */\n      0x00\n        /* \"#utility.yul\":2103:2115   */\n      revert\n        /* \"#utility.yul\":2127:2244   */\n    tag_94:\n        /* \"#utility.yul\":2236:2237   */\n      0x00\n        /* \"#utility.yul\":2233:2234   */\n      0x00\n        /* \"#utility.yul\":2226:2238   */\n      revert\n        /* \"#utility.yul\":2250:2430   */\n    tag_95:\n        /* \"#utility.yul\":2298:2375   */\n      0x4e487b7100000000000000000000000000000000000000000000000000000000\n        /* \"#utility.yul\":2295:2296   */\n      0x00\n        /* \"#utility.yul\":2288:2376   */\n      mstore\n        /* \"#utility.yul\":2395:2399   */\n      0x41\n        /* \"#utility.yul\":2392:2393   */\n      0x04\n        /* \"#utility.yul\":2385:2400   */\n      mstore\n        /* \"#utility.yul\":2419:2423   */\n      0x24\n        /* \"#utility.yul\":2416:2417   */\n      0x00\n        /* \"#utility.yul\":2409:2424   */\n      revert\n        /* \"#utility.yul\":2436:2717   */\n    tag_96:\n        /* \"#utility.yul\":2519:2546   */\n      tag_144\n        /* \"#utility.yul\":2541:2545   */\n      dup3\n        /* \"#utility.yul\":2519:2546   */\n      tag_86\n      jump\t// in\n    tag_144:\n        /* \"#utility.yul\":2511:2517   */\n      dup2\n        /* \"#utility.yul\":2507:2547   */\n      add\n        /* \"#utility.yul\":2649:2655   */\n      dup2\n        /* \"#utility.yul\":2637:2647   */\n      dup2\n        /* \"#utility.yul\":2634:2656   */\n      lt\n        /* \"#utility.yul\":2613:2631   */\n      0xffffffffffffffff\n        /* \"#utility.yul\":2601:2611   */\n      dup3\n        /* \"#utility.yul\":2598:2632   */\n      gt\n        /* \"#utility.yul\":2595:2657   */\n      or\n        /* \"#utility.yul\":2592:2680   */\n      iszero\n      tag_145\n      jumpi\n        /* \"#utility.yul\":2660:2678   */\n      tag_146\n      tag_95\n      jump\t// in\n    tag_146:\n        /* \"#utility.yul\":2592:2680   */\n    tag_145:\n        /* \"#utility.yul\":2700:2710   */\n      dup1\n        /* \"#utility.yul\":2696:2698   */\n      0x40\n        /* \"#utility.yul\":2689:2711   */\n      mstore\n        /* \"#utility.yul\":2479:2717   */\n      pop\n        /* \"#utility.yul\":2436:2717   */\n      pop\n      pop\n      jump\t// out\n        /* \"#utility.yul\":2723:2852   */\n    tag_97:\n        /* \"#utility.yul\":2757:2763   */\n      0x00\n        /* \"#utility.yul\":2784:2804   */\n      tag_148\n      tag_90\n      jump\t// in\n    tag_148:\n        /* \"#utility.yul\":2774:2804   */\n      swap1\n      pop\n        /* \"#utility.yul\":2813:2846   */\n      tag_149\n        /* \"#utility.yul\":2841:2845   */\n      dup3\n        /* \"#utility.yul\":2833:2839   */\n      dup3\n        /* \"#utility.yul\":2813:2846   */\n      tag_96\n      jump\t// in\n    tag_149:\n        /* \"#utility.yul\":2723:2852   */\n      swap2\n      swap1\n      pop\n      jump\t// out\n        /* \"#utility.yul\":2858:3166   */\n    tag_98:\n        /* \"#utility.yul\":2920:2924   */\n      0x00\n        /* \"#utility.yul\":3010:3028   */\n      0xffffffffffffffff\n        /* \"#utility.yul\":3002:3008   */\n      dup3\n        /* \"#utility.yul\":2999:3029   */\n      gt\n        /* \"#utility.yul\":2996:3052   */\n      iszero\n      tag_151\n      jumpi\n        /* \"#utility.yul\":3032:3050   */\n      tag_152\n      tag_95\n      jump\t// in\n    tag_152:\n        /* \"#utility.yul\":2996:3052   */\n    tag_151:\n        /* \"#utility.yul\":3070:3099   */\n      tag_153\n        /* \"#utility.yul\":3092:3098   */\n      dup3\n        /* \"#utility.yul\":3070:3099   */\n      tag_86\n      jump\t// in\n    tag_153:\n        /* \"#utility.yul\":3062:3099   */\n      swap1\n      pop\n        /* \"#utility.yul\":3154:3158   */\n      0x20\n        /* \"#utility.yul\":3148:3152   */\n      dup2\n        /* \"#utility.yul\":3144:3159   */\n      add\n        /* \"#utility.yul\":3136:3159   */\n      swap1\n      pop\n        /* \"#utility.yul\":2858:3166   */\n      swap2\n      swap1\n      pop\n      jump\t// out\n        /* \"#utility.yul\":3172:3320   */\n    tag_99:\n        /* \"#utility.yul\":3270:3276   */\n      dup3\n        /* \"#utility.yul\":3265:3268   */\n      dup2\n        /* \"#utility.yul\":3260:3263   */\n      dup4\n        /* \"#utility.yul\":3247:3277   */\n      calldatacopy\n        /* \"#utility.yul\":3311:3312   */\n      0x00\n        /* \"#utility.yul\":3302:3308   */\n      dup4\n        /* \"#utility.yul\":3297:3300   */\n      dup4\n        /* \"#utility.yul\":3293:3309   */\n      add\n        /* \"#utility.yul\":3286:3313   */\n      mstore\n        /* \"#utility.yul\":3172:3320   */\n      pop\n      pop\n      pop\n      jump\t// out\n        /* \"#utility.yul\":3326:3751   */\n    tag_100:\n        /* \"#utility.yul\":3404:3409   */\n      0x00\n        /* \"#utility.yul\":3429:3495   */\n      tag_156\n        /* \"#utility.yul\":3445:3494   */\n      tag_157\n        /* \"#utility.yul\":3487:3493   */\n      dup5\n        /* \"#utility.yul\":3445:3494   */\n      tag_98\n      jump\t// in\n    tag_157:\n        /* \"#utility.yul\":3429:3495   */\n      tag_97\n      jump\t// in\n    tag_156:\n        /* \"#utility.yul\":3420:3495   */\n      swap1\n      pop\n        /* \"#utility.yul\":3518:3524   */\n      dup3\n        /* \"#utility.yul\":3511:3516   */\n      dup2\n        /* \"#utility.yul\":3504:3525   */\n      mstore\n        /* \"#utility.yul\":3556:3560   */\n      0x20\n        /* \"#utility.yul\":3549:3554   */\n      dup2\n        /* \"#utility.yul\":3545:3561   */\n      add\n        /* \"#utility.yul\":3594:3597   */\n      dup5\n        /* \"#utility.yul\":3585:3591   */\n      dup5\n        /* \"#utility.yul\":3580:3583   */\n      dup5\n        /* \"#utility.yul\":3576:3592   */\n      add\n        /* \"#utility.yul\":3573:3598   */\n      gt\n        /* \"#utility.yul\":3570:3682   */\n      iszero\n      tag_158\n      jumpi\n        /* \"#utility.yul\":3601:3680   */\n      tag_159\n      tag_94\n      jump\t// in\n    tag_159:\n        /* \"#utility.yul\":3570:3682   */\n    tag_158:\n        /* \"#utility.yul\":3691:3745   */\n      tag_160\n        /* \"#utility.yul\":3738:3744   */\n      dup5\n        /* \"#utility.yul\":3733:3736   */\n      dup3\n        /* \"#utility.yul\":3728:3731   */\n      dup6\n        /* \"#utility.yul\":3691:3745   */\n      tag_99\n      jump\t// in\n    tag_160:\n        /* \"#utility.yul\":3410:3751   */\n      pop\n        /* \"#utility.yul\":3326:3751   */\n      swap4\n      swap3\n      pop\n      pop\n      pop\n      jump\t// out\n        /* \"#utility.yul\":3771:4111   */\n    tag_101:\n        /* \"#utility.yul\":3827:3832   */\n      0x00\n        /* \"#utility.yul\":3876:3879   */\n      dup3\n        /* \"#utility.yul\":3869:3873   */\n      0x1f\n        /* \"#utility.yul\":3861:3867   */\n      dup4\n        /* \"#utility.yul\":3857:3874   */\n      add\n        /* \"#utility.yul\":3853:3880   */\n      slt\n        /* \"#utility.yul\":3843:3965   */\n      tag_162\n      jumpi\n        /* \"#utility.yul\":3884:3963   */\n      tag_163\n      tag_93\n      jump\t// in\n    tag_163:\n        /* \"#utility.yul\":3843:3965   */\n    tag_162:\n        /* \"#utility.yul\":4001:4007   */\n      dup2\n        /* \"#utility.yul\":3988:4008   */\n      calldataload\n        /* \"#utility.yul\":4026:4105   */\n      tag_164\n        /* \"#utility.yul\":4101:4104   */\n      dup5\n        /* \"#utility.yul\":4093:4099   */\n      dup3\n        /* \"#utility.yul\":4086:4090   */\n      0x20\n        /* \"#utility.yul\":4078:4084   */\n      dup7\n        /* \"#utility.yul\":4074:4091   */\n      add\n        /* \"#utility.yul\":4026:4105   */\n      tag_100\n      jump\t// in\n    tag_164:\n        /* \"#utility.yul\":4017:4105   */\n      swap2\n      pop\n        /* \"#utility.yul\":3833:4111   */\n      pop\n        /* \"#utility.yul\":3771:4111   */\n      swap3\n      swap2\n      pop\n      pop\n      jump\t// out\n        /* \"#utility.yul\":4117:4239   */\n    tag_102:\n        /* \"#utility.yul\":4190:4214   */\n      tag_166\n        /* \"#utility.yul\":4208:4213   */\n      dup2\n        /* \"#utility.yul\":4190:4214   */\n      tag_88\n      jump\t// in\n    tag_166:\n        /* \"#utility.yul\":4183:4188   */\n      dup2\n        /* \"#utility.yul\":4180:4215   */\n      eq\n        /* \"#utility.yul\":4170:4233   */\n      tag_167\n      jumpi\n        /* \"#utility.yul\":4229:4230   */\n      0x00\n        /* \"#utility.yul\":4226:4227   */\n      0x00\n        /* \"#utility.yul\":4219:4231   */\n      revert\n        /* \"#utility.yul\":4170:4233   */\n    tag_167:\n        /* \"#utility.yul\":4117:4239   */\n      pop\n      jump\t// out\n        /* \"#utility.yul\":4245:4384   */\n    tag_103:\n        /* \"#utility.yul\":4291:4296   */\n      0x00\n        /* \"#utility.yul\":4329:4335   */\n      dup2\n        /* \"#utility.yul\":4316:4336   */\n      calldataload\n        /* \"#utility.yul\":4307:4336   */\n      swap1\n      pop\n        /* \"#utility.yul\":4345:4378   */\n      tag_169\n        /* \"#utility.yul\":4372:4377   */\n      dup2\n        /* \"#utility.yul\":4345:4378   */\n      tag_102\n      jump\t// in\n    tag_169:\n        /* \"#utility.yul\":4245:4384   */\n      swap3\n      swap2\n      pop\n      pop\n      jump\t// out\n        /* \"#utility.yul\":4390:5695   */\n    tag_41:\n        /* \"#utility.yul\":4506:4512   */\n      0x00\n        /* \"#utility.yul\":4514:4520   */\n      0x00\n        /* \"#utility.yul\":4522:4528   */\n      0x00\n        /* \"#utility.yul\":4530:4536   */\n      0x00\n        /* \"#utility.yul\":4579:4582   */\n      0x80\n        /* \"#utility.yul\":4567:4576   */\n      dup6\n        /* \"#utility.yul\":4558:4565   */\n      dup8\n        /* \"#utility.yul\":4554:4577   */\n      sub\n        /* \"#utility.yul\":4550:4583   */\n      slt\n        /* \"#utility.yul\":4547:4667   */\n      iszero\n      tag_171\n      jumpi\n        /* \"#utility.yul\":4586:4665   */\n      tag_172\n      tag_91\n      jump\t// in\n    tag_172:\n        /* \"#utility.yul\":4547:4667   */\n    tag_171:\n        /* \"#utility.yul\":4734:4735   */\n      0x00\n        /* \"#utility.yul\":4723:4732   */\n      dup6\n        /* \"#utility.yul\":4719:4736   */\n      add\n        /* \"#utility.yul\":4706:4737   */\n      calldataload\n        /* \"#utility.yul\":4764:4782   */\n      0xffffffffffffffff\n        /* \"#utility.yul\":4756:4762   */\n      dup2\n        /* \"#utility.yul\":4753:4783   */\n      gt\n        /* \"#utility.yul\":4750:4867   */\n      iszero\n      tag_173\n      jumpi\n        /* \"#utility.yul\":4786:4865   */\n      tag_174\n      tag_92\n      jump\t// in\n    tag_174:\n        /* \"#utility.yul\":4750:4867   */\n    tag_173:\n        /* \"#utility.yul\":4891:4954   */\n      tag_175\n        /* \"#utility.yul\":4946:4953   */\n      dup8\n        /* \"#utility.yul\":4937:4943   */\n      dup3\n        /* \"#utility.yul\":4926:4935   */\n      dup9\n        /* \"#utility.yul\":4922:4944   */\n      add\n        /* \"#utility.yul\":4891:4954   */\n      tag_101\n      jump\t// in\n    tag_175:\n        /* \"#utility.yul\":4881:4954   */\n      swap5\n      pop\n        /* \"#utility.yul\":4677:4964   */\n      pop\n        /* \"#utility.yul\":5031:5033   */\n      0x20\n        /* \"#utility.yul\":5020:5029   */\n      dup6\n        /* \"#utility.yul\":5016:5034   */\n      add\n        /* \"#utility.yul\":5003:5035   */\n      calldataload\n        /* \"#utility.yul\":5062:5080   */\n      0xffffffffffffffff\n        /* \"#utility.yul\":5054:5060   */\n      dup2\n        /* \"#utility.yul\":5051:5081   */\n      gt\n        /* \"#utility.yul\":5048:5165   */\n      iszero\n      tag_176\n      jumpi\n        /* \"#utility.yul\":5084:5163   */\n      tag_177\n      tag_92\n      jump\t// in\n    tag_177:\n        /* \"#utility.yul\":5048:5165   */\n    tag_176:\n        /* \"#utility.yul\":5189:5252   */\n      tag_178\n        /* \"#utility.yul\":5244:5251   */\n      dup8\n        /* \"#utility.yul\":5235:5241   */\n      dup3\n        /* \"#utility.yul\":5224:5233   */\n      dup9\n        /* \"#utility.yul\":5220:5242   */\n      add\n        /* \"#utility.yul\":5189:5252   */\n      tag_101\n      jump\t// in\n    tag_178:\n        /* \"#utility.yul\":5179:5252   */\n      swap4\n      pop\n        /* \"#utility.yul\":4974:5262   */\n      pop\n        /* \"#utility.yul\":5329:5331   */\n      0x40\n        /* \"#utility.yul\":5318:5327   */\n      dup6\n        /* \"#utility.yul\":5314:5332   */\n      add\n        /* \"#utility.yul\":5301:5333   */\n      calldataload\n        /* \"#utility.yul\":5360:5378   */\n      0xffffffffffffffff\n        /* \"#utility.yul\":5352:5358   */\n      dup2\n        /* \"#utility.yul\":5349:5379   */\n      gt\n        /* \"#utility.yul\":5346:5463   */\n      iszero\n      tag_179\n      jumpi\n        /* \"#utility.yul\":5382:5461   */\n      tag_180\n      tag_92\n      jump\t// in\n    tag_180:\n        /* \"#utility.yul\":5346:5463   */\n    tag_179:\n        /* \"#utility.yul\":5487:5550   */\n      tag_181\n        /* \"#utility.yul\":5542:5549   */\n      dup8\n        /* \"#utility.yul\":5533:5539   */\n      dup3\n        /* \"#utility.yul\":5522:5531   */\n      dup9\n        /* \"#utility.yul\":5518:5540   */\n      add\n        /* \"#utility.yul\":5487:5550   */\n      tag_101\n      jump\t// in\n    tag_181:\n        /* \"#utility.yul\":5477:5550   */\n      swap3\n      pop\n        /* \"#utility.yul\":5272:5560   */\n      pop\n        /* \"#utility.yul\":5599:5601   */\n      0x60\n        /* \"#utility.yul\":5625:5678   */\n      tag_182\n        /* \"#utility.yul\":5670:5677   */\n      dup8\n        /* \"#utility.yul\":5661:5667   */\n      dup3\n        /* \"#utility.yul\":5650:5659   */\n      dup9\n        /* \"#utility.yul\":5646:5668   */\n      add\n        /* \"#utility.yul\":5625:5678   */\n      tag_103\n      jump\t// in\n    tag_182:\n        /* \"#utility.yul\":5615:5678   */\n      swap2\n      pop\n        /* \"#utility.yul\":5570:5688   */\n      pop\n        /* \"#utility.yul\":4390:5695   */\n      swap3\n      swap6\n      swap2\n      swap5\n      pop\n      swap3\n      pop\n      jump\t// out\n        /* \"#utility.yul\":5701:5881   */\n    tag_104:\n        /* \"#utility.yul\":5749:5826   */\n      0x4e487b7100000000000000000000000000000000000000000000000000000000\n        /* \"#utility.yul\":5746:5747   */\n      0x00\n        /* \"#utility.yul\":5739:5827   */\n      mstore\n        /* \"#utility.yul\":5846:5850   */\n      0x22\n        /* \"#utility.yul\":5843:5844   */\n      0x04\n        /* \"#utility.yul\":5836:5851   */\n      mstore\n        /* \"#utility.yul\":5870:5874   */\n      0x24\n        /* \"#utility.yul\":5867:5868   */\n      0x00\n        /* \"#utility.yul\":5860:5875   */\n      revert\n        /* \"#utility.yul\":5887:6207   */\n    tag_44:\n        /* \"#utility.yul\":5931:5937   */\n      0x00\n        /* \"#utility.yul\":5968:5969   */\n      0x02\n        /* \"#utility.yul\":5962:5966   */\n      dup3\n        /* \"#utility.yul\":5958:5970   */\n      div\n        /* \"#utility.yul\":5948:5970   */\n      swap1\n      pop\n        /* \"#utility.yul\":6015:6016   */\n      0x01\n        /* \"#utility.yul\":6009:6013   */\n      dup3\n        /* \"#utility.yul\":6005:6017   */\n      and\n        /* \"#utility.yul\":6036:6054   */\n      dup1\n        /* \"#utility.yul\":6026:6107   */\n      tag_185\n      jumpi\n        /* \"#utility.yul\":6092:6096   */\n      0x7f\n        /* \"#utility.yul\":6084:6090   */\n      dup3\n        /* \"#utility.yul\":6080:6097   */\n      and\n        /* \"#utility.yul\":6070:6097   */\n      swap2\n      pop\n        /* \"#utility.yul\":6026:6107   */\n    tag_185:\n        /* \"#utility.yul\":6154:6156   */\n      0x20\n        /* \"#utility.yul\":6146:6152   */\n      dup3\n        /* \"#utility.yul\":6143:6157   */\n      lt\n        /* \"#utility.yul\":6123:6141   */\n      dup2\n        /* \"#utility.yul\":6120:6158   */\n      sub\n        /* \"#utility.yul\":6117:6201   */\n      tag_186\n      jumpi\n        /* \"#utility.yul\":6173:6191   */\n      tag_187\n      tag_104\n      jump\t// in\n    tag_187:\n        /* \"#utility.yul\":6117:6201   */\n    tag_186:\n        /* \"#utility.yul\":5938:6207   */\n      pop\n        /* \"#utility.yul\":5887:6207   */\n      swap2\n      swap1\n      pop\n      jump\t// out\n        /* \"#utility.yul\":6213:6354   */\n    tag_105:\n        /* \"#utility.yul\":6262:6266   */\n      0x00\n        /* \"#utility.yul\":6285:6288   */\n      dup2\n        /* \"#utility.yul\":6277:6288   */\n      swap1\n      pop\n        /* \"#utility.yul\":6308:6311   */\n      dup2\n        /* \"#utility.yul\":6305:6306   */\n      0x00\n        /* \"#utility.yul\":6298:6312   */\n      mstore\n        /* \"#utility.yul\":6342:6346   */\n      0x20\n        /* \"#utility.yul\":6339:6340   */\n      0x00\n        /* \"#utility.yul\":6329:6347   */\n      keccak256\n        /* \"#utility.yul\":6321:6347   */\n      swap1\n      pop\n        /* \"#utility.yul\":6213:6354   */\n      swap2\n      swap1\n      pop\n      jump\t// out\n        /* \"#utility.yul\":6360:6453   */\n    tag_106:\n        /* \"#utility.yul\":6397:6403   */\n      0x00\n        /* \"#utility.yul\":6444:6446   */\n      0x20\n        /* \"#utility.yul\":6439:6441   */\n      0x1f\n        /* \"#utility.yul\":6432:6437   */\n      dup4\n        /* \"#utility.yul\":6428:6442   */\n      add\n        /* \"#utility.yul\":6424:6447   */\n      div\n        /* \"#utility.yul\":6414:6447   */\n      swap1\n      pop\n        /* \"#utility.yul\":6360:6453   */\n      swap2\n      swap1\n      pop\n      jump\t// out\n        /* \"#utility.yul\":6459:6566   */\n    tag_107:\n        /* \"#utility.yul\":6503:6511   */\n      0x00\n        /* \"#utility.yul\":6553:6558   */\n      dup3\n        /* \"#utility.yul\":6547:6551   */\n      dup3\n        /* \"#utility.yul\":6543:6559   */\n      shl\n        /* \"#utility.yul\":6522:6559   */\n      swap1\n      pop\n        /* \"#utility.yul\":6459:6566   */\n      swap3\n      swap2\n      pop\n      pop\n      jump\t// out\n        /* \"#utility.yul\":6572:6965   */\n    tag_108:\n        /* \"#utility.yul\":6641:6647   */\n      0x00\n        /* \"#utility.yul\":6691:6692   */\n      0x08\n        /* \"#utility.yul\":6679:6689   */\n      dup4\n        /* \"#utility.yul\":6675:6693   */\n      mul\n        /* \"#utility.yul\":6714:6811   */\n      tag_192\n        /* \"#utility.yul\":6744:6810   */\n      0xffffffffffffffffffffffffffffffffffffffffffffffffffffffffffffffff\n        /* \"#utility.yul\":6733:6742   */\n      dup3\n        /* \"#utility.yul\":6714:6811   */\n      tag_107\n      jump\t// in\n    tag_192:\n        /* \"#utility.yul\":6832:6871   */\n      tag_193\n        /* \"#utility.yul\":6862:6870   */\n      dup7\n        /* \"#utility.yul\":6851:6860   */\n      dup4\n        /* \"#utility.yul\":6832:6871   */\n      tag_107\n      jump\t// in\n    tag_193:\n        /* \"#utility.yul\":6820:6871   */\n      swap6\n      pop\n        /* \"#utility.yul\":6904:6908   */\n      dup1\n        /* \"#utility.yul\":6900:6909   */\n      not\n        /* \"#utility.yul\":6893:6898   */\n      dup5\n        /* \"#utility.yul\":6889:6910   */\n      and\n        /* \"#utility.yul\":6880:6910   */\n      swap4\n      pop\n        /* \"#utility.yul\":6953:6957   */\n      dup1\n        /* \"#utility.yul\":6943:6951   */\n      dup7\n        /* \"#utility.yul\":6939:6958   */\n      and\n        /* \"#utility.yul\":6932:6937   */\n      dup5\n        /* \"#utility.yul\":6929:6959   */\n      or\n        /* \"#utility.yul\":6919:6959   */\n      swap3\n      pop\n        /* \"#utility.yul\":6648:6965   */\n      pop\n      pop\n        /* \"#utility.yul\":6572:6965   */\n      swap4\n      swap3\n      pop\n      pop\n      pop\n      jump\t// out\n        /* \"#utility.yul\":6971:7031   */\n    tag_109:\n        /* \"#utility.yul\":6999:7002   */\n      0x00\n        /* \"#utility.yul\":7020:7025   */\n      dup2\n        /* \"#utility.yul\":7013:7025   */\n      swap1\n      pop\n        /* \"#utility.yul\":6971:7031   */\n      swap2\n      swap1\n      pop\n      jump\t// out\n        /* \"#utility.yul\":7037:7179   */\n    tag_110:\n        /* \"#utility.yul\":7087:7096   */\n      0x00\n        /* \"#utility.yul\":7120:7173   */\n      tag_196\n        /* \"#utility.yul\":7138:7172   */\n      tag_197\n        /* \"#utility.yul\":7147:7171   */\n      tag_198\n        /* \"#utility.yul\":7165:7170   */\n      dup5\n        /* \"#utility.yul\":7147:7171   */\n      tag_88\n      jump\t// in\n    tag_198:\n        /* \"#utility.yul\":7138:7172   */\n      tag_109\n      jump\t// in\n    tag_197:\n        /* \"#utility.yul\":7120:7173   */\n      tag_88\n      jump\t// in\n    tag_196:\n        /* \"#utility.yul\":7107:7173   */\n      swap1\n      pop\n        /* \"#utility.yul\":7037:7179   */\n      swap2\n      swap1\n      pop\n      jump\t// out\n        /* \"#utility.yul\":7185:7260   */\n    tag_111:\n        /* \"#utility.yul\":7228:7231   */\n      0x00\n        /* \"#utility.yul\":7249:7254   */\n      dup2\n        /* \"#utility.yul\":7242:7254   */\n      swap1\n      pop\n        /* \"#utility.yul\":7185:7260   */\n      swap2\n      swap1\n      pop\n      jump\t// out\n        /* \"#utility.yul\":7266:7535   */\n    tag_112:\n        /* \"#utility.yul\":7376:7415   */\n      tag_201\n        /* \"#utility.yul\":7407:7414   */\n      dup4\n        /* \"#utility.yul\":7376:7415   */\n      tag_110\n      jump\t// in\n    tag_201:\n        /* \"#utility.yul\":7437:7528   */\n      tag_202\n        /* \"#utility.yul\":7486:7527   */\n      tag_203\n        /* \"#utility.yul\":7510:7526   */\n      dup3\n        /* \"#utility.yul\":7486:7527   */\n      tag_111\n      jump\t// in\n    tag_203:\n        /* \"#utility.yul\":7478:7484   */\n      dup5\n        /* \"#utility.yul\":7471:7475   */\n      dup5\n        /* \"#utility.yul\":7465:7476   */\n      sload\n        /* \"#utility.yul\":7437:7528   */\n      tag_108\n      jump\t// in\n    tag_202:\n        /* \"#utility.yul\":7431:7435   */\n      dup3\n        /* \"#utility.yul\":7424:7529   */\n      sstore\n        /* \"#utility.yul\":7342:7535   */\n      pop\n        /* \"#utility.yul\":7266:7535   */\n      pop\n      pop\n      pop\n      jump\t// out\n        /* \"#utility.yul\":7541:7614   */\n    tag_113:\n        /* \"#utility.yul\":7586:7589   */\n      0x00\n        /* \"#utility.yul\":7607:7608   */\n      0x00\n        /* \"#utility.yul\":7600:7608   */\n      swap1\n      pop\n        /* \"#utility.yul\":7541:7614   */\n      swap1\n      jump\t// out\n        /* \"#utility.yul\":7620:7809   */\n    tag_114:\n        /* \"#utility.yul\":7697:7729   */\n      tag_206\n      tag_113\n      jump\t// in\n    tag_206:\n        /* \"#utility.yul\":7738:7803   */\n      tag_207\n        /* \"#utility.yul\":7796:7802   */\n      dup2\n        /* \"#utility.yul\":7788:7794   */\n      dup5\n        /* \"#utility.yul\":7782:7786   */\n      dup5\n        /* \"#utility.yul\":7738:7803   */\n      tag_112\n      jump\t// in\n    tag_207:\n        /* \"#utility.yul\":7673:7809   */\n      pop\n        /* \"#utility.yul\":7620:7809   */\n      pop\n      pop\n      jump\t// out\n        /* \"#utility.yul\":7815:8001   */\n    tag_115:\n        /* \"#utility.yul\":7875:7995   */\n    tag_209:\n        /* \"#utility.yul\":7892:7895   */\n      dup2\n        /* \"#utility.yul\":7885:7890   */\n      dup2\n        /* \"#utility.yul\":7882:7896   */\n      lt\n        /* \"#utility.yul\":7875:7995   */\n      iszero\n      tag_211\n      jumpi\n        /* \"#utility.yul\":7946:7985   */\n      tag_212\n        /* \"#utility.yul\":7983:7984   */\n      0x00\n        /* \"#utility.yul\":7976:7981   */\n      dup3\n        /* \"#utility.yul\":7946:7985   */\n      tag_114\n      jump\t// in\n    tag_212:\n        /* \"#utility.yul\":7919:7920   */\n      0x01\n        /* \"#utility.yul\":7912:7917   */\n      dup2\n        /* \"#utility.yul\":7908:7921   */\n      add\n        /* \"#utility.yul\":7899:7921   */\n      swap1\n      pop\n        /* \"#utility.yul\":7875:7995   */\n      jump(tag_209)\n    tag_211:\n        /* \"#utility.yul\":7815:8001   */\n      pop\n      pop\n      jump\t// out\n        /* \"#utility.yul\":8007:8550   */\n    tag_116:\n        /* \"#utility.yul\":8108:8110   */\n      0x1f\n        /* \"#utility.yul\":8103:8106   */\n      dup3\n        /* \"#utility.yul\":8100:8111   */\n      gt\n        /* \"#utility.yul\":8097:8543   */\n      iszero\n      tag_214\n      jumpi\n        /* \"#utility.yul\":8142:8180   */\n      tag_215\n        /* \"#utility.yul\":8174:8179   */\n      dup2\n        /* \"#utility.yul\":8142:8180   */\n      tag_105\n      jump\t// in\n    tag_215:\n        /* \"#utility.yul\":8226:8255   */\n      tag_216\n        /* \"#utility.yul\":8244:8254   */\n      dup5\n        /* \"#utility.yul\":8226:8255   */\n      tag_106\n      jump\t// in\n    tag_216:\n        /* \"#utility.yul\":8216:8224   */\n      dup2\n        /* \"#utility.yul\":8212:8256   */\n      add\n        /* \"#utility.yul\":8409:8411   */\n      0x20\n        /* \"#utility.yul\":8397:8407   */\n      dup6\n        /* \"#utility.yul\":8394:8412   */\n      lt\n        /* \"#utility.yul\":8391:8440   */\n      iszero\n      tag_217\n      jumpi\n        /* \"#utility.yul\":8430:8438   */\n      dup2\n        /* \"#utility.yul\":8415:8438   */\n      swap1\n      pop\n        /* \"#utility.yul\":8391:8440   */\n    tag_217:\n        /* \"#utility.yul\":8453:8533   */\n      tag_218\n        /* \"#utility.yul\":8509:8531   */\n      tag_219\n        /* \"#utility.yul\":8527:8530   */\n      dup6\n        /* \"#utility.yul\":8509:8531   */\n      tag_106\n      jump\t// in\n    tag_219:\n        /* \"#utility.yul\":8499:8507   */\n      dup4\n        /* \"#utility.yul\":8495:8532   */\n      add\n        /* \"#utility.yul\":8482:8493   */\n      dup3\n        /* \"#utility.yul\":8453:8533   */\n      tag_115\n      jump\t// in\n    tag_218:\n        /* \"#utility.yul\":8112:8543   */\n      pop\n      pop\n        /* \"#utility.yul\":8097:8543   */\n    tag_214:\n        /* \"#utility.yul\":8007:8550   */\n      pop\n      pop\n      pop\n      jump\t// out\n        /* \"#utility.yul\":8556:8673   */\n    tag_117:\n        /* \"#utility.yul\":8610:8618   */\n      0x00\n        /* \"#utility.yul\":8660:8665   */\n      dup3\n        /* \"#utility.yul\":8654:8658   */\n      dup3\n        /* \"#utility.yul\":8650:8666   */\n      shr\n        /* \"#utility.yul\":8629:8666   */\n      swap1\n      pop\n        /* \"#utility.yul\":8556:8673   */\n      swap3\n      swap2\n      pop\n      pop\n      jump\t// out\n        /* \"#utility.yul\":8679:8848   */\n    tag_118:\n        /* \"#utility.yul\":8723:8729   */\n      0x00\n        /* \"#utility.yul\":8756:8807   */\n      tag_222\n        /* \"#utility.yul\":8804:8805   */\n      0x00\n        /* \"#utility.yul\":8800:8806   */\n      not\n        /* \"#utility.yul\":8792:8797   */\n      dup5\n        /* \"#utility.yul\":8789:8790   */\n      0x08\n        /* \"#utility.yul\":8785:8798   */\n      mul\n        /* \"#utility.yul\":8756:8807   */\n      tag_117\n      jump\t// in\n    tag_222:\n        /* \"#utility.yul\":8752:8808   */\n      not\n        /* \"#utility.yul\":8837:8841   */\n      dup1\n        /* \"#utility.yul\":8831:8835   */\n      dup4\n        /* \"#utility.yul\":8827:8842   */\n      and\n        /* \"#utility.yul\":8817:8842   */\n      swap2\n      pop\n        /* \"#utility.yul\":8730:8848   */\n      pop\n        /* \"#utility.yul\":8679:8848   */\n      swap3\n      swap2\n      pop\n      pop\n      jump\t// out\n        /* \"#utility.yul\":8853:9148   */\n    tag_119:\n        /* \"#utility.yul\":8929:8933   */\n      0x00\n        /* \"#utility.yul\":9075:9104   */\n      tag_224\n        /* \"#utility.yul\":9100:9103   */\n      dup4\n        /* \"#utility.yul\":9094:9098   */\n      dup4\n        /* \"#utility.yul\":9075:9104   */\n      tag_118\n      jump\t// in\n    tag_224:\n        /* \"#utility.yul\":9067:9104   */\n      swap2\n      pop\n        /* \"#utility.yul\":9137:9140   */\n      dup3\n        /* \"#utility.yul\":9134:9135   */\n      0x02\n        /* \"#utility.yul\":9130:9141   */\n      mul\n        /* \"#utility.yul\":9124:9128   */\n      dup3\n        /* \"#utility.yul\":9121:9142   */\n      or\n        /* \"#utility.yul\":9113:9142   */\n      swap1\n      pop\n        /* \"#utility.yul\":8853:9148   */\n      swap3\n      swap2\n      pop\n      pop\n      jump\t// out\n        /* \"#utility.yul\":9153:10548   */\n    tag_80:\n        /* \"#utility.yul\":9270:9307   */\n      tag_226\n        /* \"#utility.yul\":9303:9306   */\n      dup3\n        /* \"#utility.yul\":9270:9307   */\n      tag_83\n      jump\t// in\n    tag_226:\n        /* \"#utility.yul\":9372:9390   */\n      0xffffffffffffffff\n        /* \"#utility.yul\":9364:9370   */\n      dup2\n        /* \"#utility.yul\":9361:9391   */\n      gt\n        /* \"#utility.yul\":9358:9414   */\n      iszero\n      tag_227\n      jumpi\n        /* \"#utility.yul\":9394:9412   */\n      tag_228\n      tag_95\n      jump\t// in\n    tag_228:\n        /* \"#utility.yul\":9358:9414   */\n    tag_227:\n        /* \"#utility.yul\":9438:9476   */\n      tag_229\n        /* \"#utility.yul\":9470:9474   */\n      dup3\n        /* \"#utility.yul\":9464:9475   */\n      sload\n        /* \"#utility.yul\":9438:9476   */\n      tag_44\n      jump\t// in\n    tag_229:\n        /* \"#utility.yul\":9523:9590   */\n      tag_230\n        /* \"#utility.yul\":9583:9589   */\n      dup3\n        /* \"#utility.yul\":9575:9581   */\n      dup3\n        /* \"#utility.yul\":9569:9573   */\n      dup6\n        /* \"#utility.yul\":9523:9590   */\n      tag_116\n      jump\t// in\n    tag_230:\n        /* \"#utility.yul\":9617:9618   */\n      0x00\n        /* \"#utility.yul\":9641:9645   */\n      0x20\n        /* \"#utility.yul\":9628:9645   */\n      swap1\n      pop\n        /* \"#utility.yul\":9673:9675   */\n      0x1f\n        /* \"#utility.yul\":9665:9671   */\n      dup4\n        /* \"#utility.yul\":9662:9676   */\n      gt\n        /* \"#utility.yul\":9690:9691   */\n      0x01\n        /* \"#utility.yul\":9685:10303   */\n      dup2\n      eq\n      tag_232\n      jumpi\n        /* \"#utility.yul\":10347:10348   */\n      0x00\n        /* \"#utility.yul\":10364:10370   */\n      dup5\n        /* \"#utility.yul\":10361:10438   */\n      iszero\n      tag_233\n      jumpi\n        /* \"#utility.yul\":10413:10422   */\n      dup3\n        /* \"#utility.yul\":10408:10411   */\n      dup8\n        /* \"#utility.yul\":10404:10423   */\n      add\n        /* \"#utility.yul\":10398:10424   */\n      mload\n        /* \"#utility.yul\":10389:10424   */\n      swap1\n      pop\n        /* \"#utility.yul\":10361:10438   */\n    tag_233:\n        /* \"#utility.yul\":10464:10531   */\n      tag_234\n        /* \"#utility.yul\":10524:10530   */\n      dup6\n        /* \"#utility.yul\":10517:10522   */\n      dup3\n        /* \"#utility.yul\":10464:10531   */\n      tag_119\n      jump\t// in\n    tag_234:\n        /* \"#utility.yul\":10458:10462   */\n      dup7\n        /* \"#utility.yul\":10451:10532   */\n      sstore\n        /* \"#utility.yul\":10320:10542   */\n      pop\n        /* \"#utility.yul\":9655:10542   */\n      jump(tag_231)\n        /* \"#utility.yul\":9685:10303   */\n    tag_232:\n        /* \"#utility.yul\":9737:9741   */\n      0x1f\n        /* \"#utility.yul\":9733:9742   */\n      not\n        /* \"#utility.yul\":9725:9731   */\n      dup5\n        /* \"#utility.yul\":9721:9743   */\n      and\n        /* \"#utility.yul\":9771:9808   */\n      tag_235\n        /* \"#utility.yul\":9803:9807   */\n      dup7\n        /* \"#utility.yul\":9771:9808   */\n      tag_105\n      jump\t// in\n    tag_235:\n        /* \"#utility.yul\":9830:9831   */\n      0x00\n        /* \"#utility.yul\":9844:10052   */\n    tag_236:\n        /* \"#utility.yul\":9858:9865   */\n      dup3\n        /* \"#utility.yul\":9855:9856   */\n      dup2\n        /* \"#utility.yul\":9852:9866   */\n      lt\n        /* \"#utility.yul\":9844:10052   */\n      iszero\n      tag_238\n      jumpi\n        /* \"#utility.yul\":9937:9946   */\n      dup5\n        /* \"#utility.yul\":9932:9935   */\n      dup10\n        /* \"#utility.yul\":9928:9947   */\n      add\n        /* \"#utility.yul\":9922:9948   */\n      mload\n        /* \"#utility.yul\":9914:9920   */\n      dup3\n        /* \"#utility.yul\":9907:9949   */\n      sstore\n        /* \"#utility.yul\":9988:9989   */\n      0x01\n        /* \"#utility.yul\":9980:9986   */\n      dup3\n        /* \"#utility.yul\":9976:9990   */\n      add\n        /* \"#utility.yul\":9966:9990   */\n      swap2\n      pop\n        /* \"#utility.yul\":10035:10037   */\n      0x20\n        /* \"#utility.yul\":10024:10033   */\n      dup6\n        /* \"#utility.yul\":10020:10038   */\n      add\n        /* \"#utility.yul\":10007:10038   */\n      swap5\n      pop\n        /* \"#utility.yul\":9881:9885   */\n      0x20\n        /* \"#utility.yul\":9878:9879   */\n      dup2\n        /* \"#utility.yul\":9874:9886   */\n      add\n        /* \"#utility.yul\":9869:9886   */\n      swap1\n      pop\n        /* \"#utility.yul\":9844:10052   */\n      jump(tag_236)\n    tag_238:\n        /* \"#utility.yul\":10080:10086   */\n      dup7\n        /* \"#utility.yul\":10071:10078   */\n      dup4\n        /* \"#utility.yul\":10068:10087   */\n      lt\n        /* \"#utility.yul\":10065:10244   */\n      iszero\n      tag_239\n      jumpi\n        /* \"#utility.yul\":10138:10147   */\n      dup5\n        /* \"#utility.yul\":10133:10136   */\n      dup10\n        /* \"#utility.yul\":10129:10148   */\n      add\n        /* \"#utility.yul\":10123:10149   */\n      mload\n        /* \"#utility.yul\":10181:10229   */\n      tag_240\n        /* \"#utility.yul\":10223:10227   */\n      0x1f\n        /* \"#utility.yul\":10215:10221   */\n      dup10\n        /* \"#utility.yul\":10211:10228   */\n      and\n        /* \"#utility.yul\":10200:10209   */\n      dup3\n        /* \"#utility.yul\":10181:10229   */\n      tag_118\n      jump\t// in\n    tag_240:\n        /* \"#utility.yul\":10173:10179   */\n      dup4\n        /* \"#utility.yul\":10166:10230   */\n      sstore\n        /* \"#utility.yul\":10088:10244   */\n      pop\n        /* \"#utility.yul\":10065:10244   */\n    tag_239:\n        /* \"#utility.yul\":10290:10291   */\n      0x01\n        /* \"#utility.yul\":10286:10287   */\n      0x02\n        /* \"#utility.yul\":10278:10284   */\n      dup9\n        /* \"#utility.yul\":10274:10288   */\n      mul\n        /* \"#utility.yul\":10270:10292   */\n      add\n        /* \"#utility.yul\":10264:10268   */\n      dup9\n        /* \"#utility.yul\":10257:10293   */\n      sstore\n        /* \"#utility.yul\":9692:10303   */\n      pop\n      pop\n      pop\n        /* \"#utility.yul\":9655:10542   */\n    tag_231:\n      pop\n        /* \"#utility.yul\":9245:10548   */\n      pop\n      pop\n      pop\n        /* \"#utility.yul\":9153:10548   */\n      pop\n      pop\n      jump\t// out\n\n    auxdata: 0xa2646970667358221220f3e9e154580f55e98ed916359ac7cc1d0e02c0f58818d1ce8c2f10b02a2728e164736f6c634300081e0033\n}\n",
				"bytecode": {
					"linkReferences": {},
					"object": "6080604052348015600e575f5ffd5b50610b208061001c5f395ff3fe608060405234801561000f575f5ffd5b5060043610610091575f3560e01c80634ba5c8ca116100645780634ba5c8ca1461010d578063967e6e651461012b5780639e9d17b414610149578063bd037c9314610167578063bfe0695c1461018557610091565b806306fdde031461009557806317d7de7c146100b3578063262a9dff146100d157806338d86406146100ef575b5f5ffd5b61009d6101a1565b6040516100aa91906105ae565b60405180910390f35b6100bb61022c565b6040516100c891906105ae565b60405180910390f35b6100d96102bb565b6040516100e691906105e6565b60405180910390f35b6100f76102c1565b60405161010491906105ae565b60405180910390f35b61011561034d565b60405161012291906105ae565b60405180910390f35b6101336103dd565b60405161014091906105e6565b60405180910390f35b6101516103e6565b60405161015e91906105ae565b60405180910390f35b61016f610476565b60405161017c91906105ae565b60405180910390f35b61019f600480360381019061019a9190610766565b610502565b005b5f80546101ad9061084b565b80601f01602080910402602001604051908101604052809291908181526020018280546101d99061084b565b80156102245780601f106101fb57610100808354040283529160200191610224565b820191905f5260205f20905b81548152906001019060200180831161020757829003601f168201915b505050505081565b60605f805461023a9061084b565b80601f01602080910402602001604051908101604052809291908181526020018280546102669061084b565b80156102b15780601f10610288576101008083540402835291602001916102b1565b820191905f5260205f20905b81548152906001019060200180831161029457829003601f168201915b5050505050905090565b60035481565b600180546102ce9061084b565b80601f01602080910402602001604051908101604052809291908181526020018280546102fa9061084b565b80156103455780601f1061031c57610100808354040283529160200191610345565b820191905f5260205f20905b81548152906001019060200180831161032857829003601f168201915b505050505081565b60606001805461035c9061084b565b80601f01602080910402602001604051908101604052809291908181526020018280546103889061084b565b80156103d35780601f106103aa576101008083540402835291602001916103d3565b820191905f5260205f20905b8154815290600101906020018083116103b657829003601f168201915b5050505050905090565b5f600354905090565b6060600280546103f59061084b565b80601f01602080910402602001604051908101604052809291908181526020018280546104219061084b565b801561046c5780601f106104435761010080835404028352916020019161046c565b820191905f5260205f20905b81548152906001019060200180831161044f57829003601f168201915b5050505050905090565b600280546104839061084b565b80601f01602080910402602001604051908101604052809291908181526020018280546104af9061084b565b80156104fa5780601f106104d1576101008083540402835291602001916104fa565b820191905f5260205f20905b8154815290600101906020018083116104dd57829003601f168201915b505050505081565b835f90816105109190610a1b565b5082600190816105209190610a1b565b5081600290816105309190610a1b565b508060038190555050505050565b5f81519050919050565b5f82825260208201905092915050565b8281835e5f83830152505050565b5f601f19601f8301169050919050565b5f6105808261053e565b61058a8185610548565b935061059a818560208601610558565b6105a381610566565b840191505092915050565b5f6020820190508181035f8301526105c68184610576565b905092915050565b5f819050919050565b6105e0816105ce565b82525050565b5f6020820190506105f95f8301846105d7565b92915050565b5f604051905090565b5f5ffd5b5f5ffd5b5f5ffd5b5f5ffd5b7f4e487b71000000000000000000000000000000000000000000000000000000005f52604160045260245ffd5b61064e82610566565b810181811067ffffffffffffffff8211171561066d5761066c610618565b5b80604052505050565b5f61067f6105ff565b905061068b8282610645565b919050565b5f67ffffffffffffffff8211156106aa576106a9610618565b5b6106b382610566565b9050602081019050919050565b828183375f83830152505050565b5f6106e06106db84610690565b610676565b9050828152602081018484840111156106fc576106fb610614565b5b6107078482856106c0565b509392505050565b5f82601f83011261072357610722610610565b5b81356107338482602086016106ce565b91505092915050565b610745816105ce565b811461074f575f5ffd5b50565b5f813590506107608161073c565b92915050565b5f5f5f5f6080858703121561077e5761077d610608565b5b5f85013567ffffffffffffffff81111561079b5761079a61060c565b5b6107a78782880161070f565b945050602085013567ffffffffffffffff8111156107c8576107c761060c565b5b6107d48782880161070f565b935050604085013567ffffffffffffffff8111156107f5576107f461060c565b5b6108018782880161070f565b925050606061081287828801610752565b91505092959194509250565b7f4e487b71000000000000000000000000000000000000000000000000000000005f52602260045260245ffd5b5f600282049050600182168061086257607f821691505b6020821081036108755761087461081e565b5b50919050565b5f819050815f5260205f209050919050565b5f6020601f8301049050919050565b5f82821b905092915050565b5f600883026108d77fffffffffffffffffffffffffffffffffffffffffffffffffffffffffffffffff8261089c565b6108e1868361089c565b95508019841693508086168417925050509392505050565b5f819050919050565b5f61091c610917610912846105ce565b6108f9565b6105ce565b9050919050565b5f819050919050565b61093583610902565b61094961094182610923565b8484546108a8565b825550505050565b5f5f905090565b610960610951565b61096b81848461092c565b505050565b5b8181101561098e576109835f82610958565b600181019050610971565b5050565b601f8211156109d3576109a48161087b565b6109ad8461088d565b810160208510156109bc578190505b6109d06109c88561088d565b830182610970565b50505b505050565b5f82821c905092915050565b5f6109f35f19846008026109d8565b1980831691505092915050565b5f610a0b83836109e4565b9150826002028217905092915050565b610a248261053e565b67ffffffffffffffff811115610a3d57610a3c610618565b5b610a47825461084b565b610a52828285610992565b5f60209050601f831160018114610a83575f8415610a71578287015190505b610a7b8582610a00565b865550610ae2565b601f198416610a918661087b565b5f5b82811015610ab857848901518255600182019150602085019450602081019050610a93565b86831015610ad55784890151610ad1601f8916826109e4565b8355505b6001600288020188555050505b50505050505056fea2646970667358221220f3e9e154580f55e98ed916359ac7cc1d0e02c0f58818d1ce8c2f10b02a2728e164736f6c634300081e0033",
					"opcodes": "PUSH1 0x80 PUSH1 0x40 MSTORE CALLVALUE DUP1 ISZERO PUSH1 0xE JUMPI PUSH0 PUSH0 REVERT JUMPDEST POP PUSH2 0xB20 DUP1 PUSH2 0x1C PUSH0 CODECOPY PUSH0 RETURN INVALID PUSH1 0x80 PUSH1 0x40 MSTORE CALLVALUE DUP1 ISZERO PUSH2 0xF JUMPI PUSH0 PUSH0 REVERT JUMPDEST POP PUSH1 0x4 CALLDATASIZE LT PUSH2 0x91 JUMPI PUSH0 CALLDATALOAD PUSH1 0xE0 SHR DUP1 PUSH4 0x4BA5C8CA GT PUSH2 0x64 JUMPI DUP1 PUSH4 0x4BA5C8CA EQ PUSH2 0x10D JUMPI DUP1 PUSH4 0x967E6E65 EQ PUSH2 0x12B JUMPI DUP1 PUSH4 0x9E9D17B4 EQ PUSH2 0x149 JUMPI DUP1 PUSH4 0xBD037C93 EQ PUSH2 0x167 JUMPI DUP1 PUSH4 0xBFE0695C EQ PUSH2 0x185 JUMPI PUSH2 0x91 JUMP JUMPDEST DUP1 PUSH4 0x6FDDE03 EQ PUSH2 0x95 JUMPI DUP1 PUSH4 0x17D7DE7C EQ PUSH2 0xB3 JUMPI DUP1 PUSH4 0x262A9DFF EQ PUSH2 0xD1 JUMPI DUP1 PUSH4 0x38D86406 EQ PUSH2 0xEF JUMPI JUMPDEST PUSH0 PUSH0 REVERT JUMPDEST PUSH2 0x9D PUSH2 0x1A1 JUMP JUMPDEST PUSH1 0x40 MLOAD PUSH2 0xAA SWAP2 SWAP1 PUSH2 0x5AE JUMP JUMPDEST PUSH1 0x40 MLOAD DUP1 SWAP2 SUB SWAP1 RETURN JUMPDEST PUSH2 0xBB PUSH2 0x22C JUMP JUMPDEST PUSH1 0x40 MLOAD PUSH2 0xC8 SWAP2 SWAP1 PUSH2 0x5AE JUMP JUMPDEST PUSH1 0x40 MLOAD DUP1 SWAP2 SUB SWAP1 RETURN JUMPDEST PUSH2 0xD9 PUSH2 0x2BB JUMP JUMPDEST PUSH1 0x40 MLOAD PUSH2 0xE6 SWAP2 SWAP1 PUSH2 0x5E6 JUMP JUMPDEST PUSH1 0x40 MLOAD DUP1 SWAP2 SUB SWAP1 RETURN JUMPDEST PUSH2 0xF7 PUSH2 0x2C1 JUMP JUMPDEST PUSH1 0x40 MLOAD PUSH2 0x104 SWAP2 SWAP1 PUSH2 0x5AE JUMP JUMPDEST PUSH1 0x40 MLOAD DUP1 SWAP2 SUB SWAP1 RETURN JUMPDEST PUSH2 0x115 PUSH2 0x34D JUMP JUMPDEST PUSH1 0x40 MLOAD PUSH2 0x122 SWAP2 SWAP1 PUSH2 0x5AE JUMP JUMPDEST PUSH1 0x40 MLOAD DUP1 SWAP2 SUB SWAP1 RETURN JUMPDEST PUSH2 0x133 PUSH2 0x3DD JUMP JUMPDEST PUSH1 0x40 MLOAD PUSH2 0x140 SWAP2 SWAP1 PUSH2 0x5E6 JUMP JUMPDEST PUSH1 0x40 MLOAD DUP1 SWAP2 SUB SWAP1 RETURN JUMPDEST PUSH2 0x151 PUSH2 0x3E6 JUMP JUMPDEST PUSH1 0x40 MLOAD PUSH2 0x15E SWAP2 SWAP1 PUSH2 0x5AE JUMP JUMPDEST PUSH1 0x40 MLOAD DUP1 SWAP2 SUB SWAP1 RETURN JUMPDEST PUSH2 0x16F PUSH2 0x476 JUMP JUMPDEST PUSH1 0x40 MLOAD PUSH2 0x17C SWAP2 SWAP1 PUSH2 0x5AE JUMP JUMPDEST PUSH1 0x40 MLOAD DUP1 SWAP2 SUB SWAP1 RETURN JUMPDEST PUSH2 0x19F PUSH1 0x4 DUP1 CALLDATASIZE SUB DUP2 ADD SWAP1 PUSH2 0x19A SWAP2 SWAP1 PUSH2 0x766 JUMP JUMPDEST PUSH2 0x502 JUMP JUMPDEST STOP JUMPDEST PUSH0 DUP1 SLOAD PUSH2 0x1AD SWAP1 PUSH2 0x84B JUMP JUMPDEST DUP1 PUSH1 0x1F ADD PUSH1 0x20 DUP1 SWAP2 DIV MUL PUSH1 0x20 ADD PUSH1 0x40 MLOAD SWAP1 DUP2 ADD PUSH1 0x40 MSTORE DUP1 SWAP3 SWAP2 SWAP1 DUP2 DUP2 MSTORE PUSH1 0x20 ADD DUP3 DUP1 SLOAD PUSH2 0x1D9 SWAP1 PUSH2 0x84B JUMP JUMPDEST DUP1 ISZERO PUSH2 0x224 JUMPI DUP1 PUSH1 0x1F LT PUSH2 0x1FB JUMPI PUSH2 0x100 DUP1 DUP4 SLOAD DIV MUL DUP4 MSTORE SWAP2 PUSH1 0x20 ADD SWAP2 PUSH2 0x224 JUMP JUMPDEST DUP3 ADD SWAP2 SWAP1 PUSH0 MSTORE PUSH1 0x20 PUSH0 KECCAK256 SWAP1 JUMPDEST DUP2 SLOAD DUP2 MSTORE SWAP1 PUSH1 0x1 ADD SWAP1 PUSH1 0x20 ADD DUP1 DUP4 GT PUSH2 0x207 JUMPI DUP3 SWAP1 SUB PUSH1 0x1F AND DUP3 ADD SWAP2 JUMPDEST POP POP POP POP POP DUP2 JUMP JUMPDEST PUSH1 0x60 PUSH0 DUP1 SLOAD PUSH2 0x23A SWAP1 PUSH2 0x84B JUMP JUMPDEST DUP1 PUSH1 0x1F ADD PUSH1 0x20 DUP1 SWAP2 DIV MUL PUSH1 0x20 ADD PUSH1 0x40 MLOAD SWAP1 DUP2 ADD PUSH1 0x40 MSTORE DUP1 SWAP3 SWAP2 SWAP1 DUP2 DUP2 MSTORE PUSH1 0x20 ADD DUP3 DUP1 SLOAD PUSH2 0x266 SWAP1 PUSH2 0x84B JUMP JUMPDEST DUP1 ISZERO PUSH2 0x2B1 JUMPI DUP1 PUSH1 0x1F LT PUSH2 0x288 JUMPI PUSH2 0x100 DUP1 DUP4 SLOAD DIV MUL DUP4 MSTORE SWAP2 PUSH1 0x20 ADD SWAP2 PUSH2 0x2B1 JUMP JUMPDEST DUP3 ADD SWAP2 SWAP1 PUSH0 MSTORE PUSH1 0x20 PUSH0 KECCAK256 SWAP1 JUMPDEST DUP2 SLOAD DUP2 MSTORE SWAP1 PUSH1 0x1 ADD SWAP1 PUSH1 0x20 ADD DUP1 DUP4 GT PUSH2 0x294 JUMPI DUP3 SWAP1 SUB PUSH1 0x1F AND DUP3 ADD SWAP2 JUMPDEST POP POP POP POP POP SWAP1 POP SWAP1 JUMP JUMPDEST PUSH1 0x3 SLOAD DUP2 JUMP JUMPDEST PUSH1 0x1 DUP1 SLOAD PUSH2 0x2CE SWAP1 PUSH2 0x84B JUMP JUMPDEST DUP1 PUSH1 0x1F ADD PUSH1 0x20 DUP1 SWAP2 DIV MUL PUSH1 0x20 ADD PUSH1 0x40 MLOAD SWAP1 DUP2 ADD PUSH1 0x40 MSTORE DUP1 SWAP3 SWAP2 SWAP1 DUP2 DUP2 MSTORE PUSH1 0x20 ADD DUP3 DUP1 SLOAD PUSH2 0x2FA SWAP1 PUSH2 0x84B JUMP JUMPDEST DUP1 ISZERO PUSH2 0x345 JUMPI DUP1 PUSH1 0x1F LT PUSH2 0x31C JUMPI PUSH2 0x100 DUP1 DUP4 SLOAD DIV MUL DUP4 MSTORE SWAP2 PUSH1 0x20 ADD SWAP2 PUSH2 0x345 JUMP JUMPDEST DUP3 ADD SWAP2 SWAP1 PUSH0 MSTORE PUSH1 0x20 PUSH0 KECCAK256 SWAP1 JUMPDEST DUP2 SLOAD DUP2 MSTORE SWAP1 PUSH1 0x1 ADD SWAP1 PUSH1 0x20 ADD DUP1 DUP4 GT PUSH2 0x328 JUMPI DUP3 SWAP1 SUB PUSH1 0x1F AND DUP3 ADD SWAP2 JUMPDEST POP POP POP POP POP DUP2 JUMP JUMPDEST PUSH1 0x60 PUSH1 0x1 DUP1 SLOAD PUSH2 0x35C SWAP1 PUSH2 0x84B JUMP JUMPDEST DUP1 PUSH1 0x1F ADD PUSH1 0x20 DUP1 SWAP2 DIV MUL PUSH1 0x20 ADD PUSH1 0x40 MLOAD SWAP1 DUP2 ADD PUSH1 0x40 MSTORE DUP1 SWAP3 SWAP2 SWAP1 DUP2 DUP2 MSTORE PUSH1 0x20 ADD DUP3 DUP1 SLOAD PUSH2 0x388 SWAP1 PUSH2 0x84B JUMP JUMPDEST DUP1 ISZERO PUSH2 0x3D3 JUMPI DUP1 PUSH1 0x1F LT PUSH2 0x3AA JUMPI PUSH2 0x100 DUP1 DUP4 SLOAD DIV MUL DUP4 MSTORE SWAP2 PUSH1 0x20 ADD SWAP2 PUSH2 0x3D3 JUMP JUMPDEST DUP3 ADD SWAP2 SWAP1 PUSH0 MSTORE PUSH1 0x20 PUSH0 KECCAK256 SWAP1 JUMPDEST DUP2 SLOAD DUP2 MSTORE SWAP1 PUSH1 0x1 ADD SWAP1 PUSH1 0x20 ADD DUP1 DUP4 GT PUSH2 0x3B6 JUMPI DUP3 SWAP1 SUB PUSH1 0x1F AND DUP3 ADD SWAP2 JUMPDEST POP POP POP POP POP SWAP1 POP SWAP1 JUMP JUMPDEST PUSH0 PUSH1 0x3 SLOAD SWAP1 POP SWAP1 JUMP JUMPDEST PUSH1 0x60 PUSH1 0x2 DUP1 SLOAD PUSH2 0x3F5 SWAP1 PUSH2 0x84B JUMP JUMPDEST DUP1 PUSH1 0x1F ADD PUSH1 0x20 DUP1 SWAP2 DIV MUL PUSH1 0x20 ADD PUSH1 0x40 MLOAD SWAP1 DUP2 ADD PUSH1 0x40 MSTORE DUP1 SWAP3 SWAP2 SWAP1 DUP2 DUP2 MSTORE PUSH1 0x20 ADD DUP3 DUP1 SLOAD PUSH2 0x421 SWAP1 PUSH2 0x84B JUMP JUMPDEST DUP1 ISZERO PUSH2 0x46C JUMPI DUP1 PUSH1 0x1F LT PUSH2 0x443 JUMPI PUSH2 0x100 DUP1 DUP4 SLOAD DIV MUL DUP4 MSTORE SWAP2 PUSH1 0x20 ADD SWAP2 PUSH2 0x46C JUMP JUMPDEST DUP3 ADD SWAP2 SWAP1 PUSH0 MSTORE PUSH1 0x20 PUSH0 KECCAK256 SWAP1 JUMPDEST DUP2 SLOAD DUP2 MSTORE SWAP1 PUSH1 0x1 ADD SWAP1 PUSH1 0x20 ADD DUP1 DUP4 GT PUSH2 0x44F JUMPI DUP3 SWAP1 SUB PUSH1 0x1F AND DUP3 ADD SWAP2 JUMPDEST POP POP POP POP POP SWAP1 POP SWAP1 JUMP JUMPDEST PUSH1 0x2 DUP1 SLOAD PUSH2 0x483 SWAP1 PUSH2 0x84B JUMP JUMPDEST DUP1 PUSH1 0x1F ADD PUSH1 0x20 DUP1 SWAP2 DIV MUL PUSH1 0x20 ADD PUSH1 0x40 MLOAD SWAP1 DUP2 ADD PUSH1 0x40 MSTORE DUP1 SWAP3 SWAP2 SWAP1 DUP2 DUP2 MSTORE PUSH1 0x20 ADD DUP3 DUP1 SLOAD PUSH2 0x4AF SWAP1 PUSH2 0x84B JUMP JUMPDEST DUP1 ISZERO PUSH2 0x4FA JUMPI DUP1 PUSH1 0x1F LT PUSH2 0x4D1 JUMPI PUSH2 0x100 DUP1 DUP4 SLOAD DIV MUL DUP4 MSTORE SWAP2 PUSH1 0x20 ADD SWAP2 PUSH2 0x4FA JUMP JUMPDEST DUP3 ADD SWAP2 SWAP1 PUSH0 MSTORE PUSH1 0x20 PUSH0 KECCAK256 SWAP1 JUMPDEST DUP2 SLOAD DUP2 MSTORE SWAP1 PUSH1 0x1 ADD SWAP1 PUSH1 0x20 ADD DUP1 DUP4 GT PUSH2 0x4DD JUMPI DUP3 SWAP1 SUB PUSH1 0x1F AND DUP3 ADD SWAP2 JUMPDEST POP POP POP POP POP DUP2 JUMP JUMPDEST DUP4 PUSH0 SWAP1 DUP2 PUSH2 0x510 SWAP2 SWAP1 PUSH2 0xA1B JUMP JUMPDEST POP DUP3 PUSH1 0x1 SWAP1 DUP2 PUSH2 0x520 SWAP2 SWAP1 PUSH2 0xA1B JUMP JUMPDEST POP DUP2 PUSH1 0x2 SWAP1 DUP2 PUSH2 0x530 SWAP2 SWAP1 PUSH2 0xA1B JUMP JUMPDEST POP DUP1 PUSH1 0x3 DUP2 SWAP1 SSTORE POP POP POP POP POP JUMP JUMPDEST PUSH0 DUP2 MLOAD SWAP1 POP SWAP2 SWAP1 POP JUMP JUMPDEST PUSH0 DUP3 DUP3 MSTORE PUSH1 0x20 DUP3 ADD SWAP1 POP SWAP3 SWAP2 POP POP JUMP JUMPDEST DUP3 DUP2 DUP4 MCOPY PUSH0 DUP4 DUP4 ADD MSTORE POP POP POP JUMP JUMPDEST PUSH0 PUSH1 0x1F NOT PUSH1 0x1F DUP4 ADD AND SWAP1 POP SWAP2 SWAP1 POP JUMP JUMPDEST PUSH0 PUSH2 0x580 DUP3 PUSH2 0x53E JUMP JUMPDEST PUSH2 0x58A DUP2 DUP6 PUSH2 0x548 JUMP JUMPDEST SWAP4 POP PUSH2 0x59A DUP2 DUP6 PUSH1 0x20 DUP7 ADD PUSH2 0x558 JUMP JUMPDEST PUSH2 0x5A3 DUP2 PUSH2 0x566 JUMP JUMPDEST DUP5 ADD SWAP2 POP POP SWAP3 SWAP2 POP POP JUMP JUMPDEST PUSH0 PUSH1 0x20 DUP3 ADD SWAP1 POP DUP2 DUP2 SUB PUSH0 DUP4 ADD MSTORE PUSH2 0x5C6 DUP2 DUP5 PUSH2 0x576 JUMP JUMPDEST SWAP1 POP SWAP3 SWAP2 POP POP JUMP JUMPDEST PUSH0 DUP2 SWAP1 POP SWAP2 SWAP1 POP JUMP JUMPDEST PUSH2 0x5E0 DUP2 PUSH2 0x5CE JUMP JUMPDEST DUP3 MSTORE POP POP JUMP JUMPDEST PUSH0 PUSH1 0x20 DUP3 ADD SWAP1 POP PUSH2 0x5F9 PUSH0 DUP4 ADD DUP5 PUSH2 0x5D7 JUMP JUMPDEST SWAP3 SWAP2 POP POP JUMP JUMPDEST PUSH0 PUSH1 0x40 MLOAD SWAP1 POP SWAP1 JUMP JUMPDEST PUSH0 PUSH0 REVERT JUMPDEST PUSH0 PUSH0 REVERT JUMPDEST PUSH0 PUSH0 REVERT JUMPDEST PUSH0 PUSH0 REVERT JUMPDEST PUSH32 0x4E487B7100000000000000000000000000000000000000000000000000000000 PUSH0 MSTORE PUSH1 0x41 PUSH1 0x4 MSTORE PUSH1 0x24 PUSH0 REVERT JUMPDEST PUSH2 0x64E DUP3 PUSH2 0x566 JUMP JUMPDEST DUP2 ADD DUP2 DUP2 LT PUSH8 0xFFFFFFFFFFFFFFFF DUP3 GT OR ISZERO PUSH2 0x66D JUMPI PUSH2 0x66C PUSH2 0x618 JUMP JUMPDEST JUMPDEST DUP1 PUSH1 0x40 MSTORE POP POP POP JUMP JUMPDEST PUSH0 PUSH2 0x67F PUSH2 0x5FF JUMP JUMPDEST SWAP1 POP PUSH2 0x68B DUP3 DUP3 PUSH2 0x645 JUMP JUMPDEST SWAP2 SWAP1 POP JUMP JUMPDEST PUSH0 PUSH8 0xFFFFFFFFFFFFFFFF DUP3 GT ISZERO PUSH2 0x6AA JUMPI PUSH2 0x6A9 PUSH2 0x618 JUMP JUMPDEST JUMPDEST PUSH2 0x6B3 DUP3 PUSH2 0x566 JUMP JUMPDEST SWAP1 POP PUSH1 0x20 DUP2 ADD SWAP1 POP SWAP2 SWAP1 POP JUMP JUMPDEST DUP3 DUP2 DUP4 CALLDATACOPY PUSH0 DUP4 DUP4 ADD MSTORE POP POP POP JUMP JUMPDEST PUSH0 PUSH2 0x6E0 PUSH2 0x6DB DUP5 PUSH2 0x690 JUMP JUMPDEST PUSH2 0x676 JUMP JUMPDEST SWAP1 POP DUP3 DUP2 MSTORE PUSH1 0x20 DUP2 ADD DUP5 DUP5 DUP5 ADD GT ISZERO PUSH2 0x6FC JUMPI PUSH2 0x6FB PUSH2 0x614 JUMP JUMPDEST JUMPDEST PUSH2 0x707 DUP5 DUP3 DUP6 PUSH2 0x6C0 JUMP JUMPDEST POP SWAP4 SWAP3 POP POP POP JUMP JUMPDEST PUSH0 DUP3 PUSH1 0x1F DUP4 ADD SLT PUSH2 0x723 JUMPI PUSH2 0x722 PUSH2 0x610 JUMP JUMPDEST JUMPDEST DUP2 CALLDATALOAD PUSH2 0x733 DUP5 DUP3 PUSH1 0x20 DUP7 ADD PUSH2 0x6CE JUMP JUMPDEST SWAP2 POP POP SWAP3 SWAP2 POP POP JUMP JUMPDEST PUSH2 0x745 DUP2 PUSH2 0x5CE JUMP JUMPDEST DUP2 EQ PUSH2 0x74F JUMPI PUSH0 PUSH0 REVERT JUMPDEST POP JUMP JUMPDEST PUSH0 DUP2 CALLDATALOAD SWAP1 POP PUSH2 0x760 DUP2 PUSH2 0x73C JUMP JUMPDEST SWAP3 SWAP2 POP POP JUMP JUMPDEST PUSH0 PUSH0 PUSH0 PUSH0 PUSH1 0x80 DUP6 DUP8 SUB SLT ISZERO PUSH2 0x77E JUMPI PUSH2 0x77D PUSH2 0x608 JUMP JUMPDEST JUMPDEST PUSH0 DUP6 ADD CALLDATALOAD PUSH8 0xFFFFFFFFFFFFFFFF DUP2 GT ISZERO PUSH2 0x79B JUMPI PUSH2 0x79A PUSH2 0x60C JUMP JUMPDEST JUMPDEST PUSH2 0x7A7 DUP8 DUP3 DUP9 ADD PUSH2 0x70F JUMP JUMPDEST SWAP5 POP POP PUSH1 0x20 DUP6 ADD CALLDATALOAD PUSH8 0xFFFFFFFFFFFFFFFF DUP2 GT ISZERO PUSH2 0x7C8 JUMPI PUSH2 0x7C7 PUSH2 0x60C JUMP JUMPDEST JUMPDEST PUSH2 0x7D4 DUP8 DUP3 DUP9 ADD PUSH2 0x70F JUMP JUMPDEST SWAP4 POP POP PUSH1 0x40 DUP6 ADD CALLDATALOAD PUSH8 0xFFFFFFFFFFFFFFFF DUP2 GT ISZERO PUSH2 0x7F5 JUMPI PUSH2 0x7F4 PUSH2 0x60C JUMP JUMPDEST JUMPDEST PUSH2 0x801 DUP8 DUP3 DUP9 ADD PUSH2 0x70F JUMP JUMPDEST SWAP3 POP POP PUSH1 0x60 PUSH2 0x812 DUP8 DUP3 DUP9 ADD PUSH2 0x752 JUMP JUMPDEST SWAP2 POP POP SWAP3 SWAP6 SWAP2 SWAP5 POP SWAP3 POP JUMP JUMPDEST PUSH32 0x4E487B7100000000000000000000000000000000000000000000000000000000 PUSH0 MSTORE PUSH1 0x22 PUSH1 0x4 MSTORE PUSH1 0x24 PUSH0 REVERT JUMPDEST PUSH0 PUSH1 0x2 DUP3 DIV SWAP1 POP PUSH1 0x1 DUP3 AND DUP1 PUSH2 0x862 JUMPI PUSH1 0x7F DUP3 AND SWAP2 POP JUMPDEST PUSH1 0x20 DUP3 LT DUP2 SUB PUSH2 0x875 JUMPI PUSH2 0x874 PUSH2 0x81E JUMP JUMPDEST JUMPDEST POP SWAP2 SWAP1 POP JUMP JUMPDEST PUSH0 DUP2 SWAP1 POP DUP2 PUSH0 MSTORE PUSH1 0x20 PUSH0 KECCAK256 SWAP1 POP SWAP2 SWAP1 POP JUMP JUMPDEST PUSH0 PUSH1 0x20 PUSH1 0x1F DUP4 ADD DIV SWAP1 POP SWAP2 SWAP1 POP JUMP JUMPDEST PUSH0 DUP3 DUP3 SHL SWAP1 POP SWAP3 SWAP2 POP POP JUMP JUMPDEST PUSH0 PUSH1 0x8 DUP4 MUL PUSH2 0x8D7 PUSH32 0xFFFFFFFFFFFFFFFFFFFFFFFFFFFFFFFFFFFFFFFFFFFFFFFFFFFFFFFFFFFFFFFF DUP3 PUSH2 0x89C JUMP JUMPDEST PUSH2 0x8E1 DUP7 DUP4 PUSH2 0x89C JUMP JUMPDEST SWAP6 POP DUP1 NOT DUP5 AND SWAP4 POP DUP1 DUP7 AND DUP5 OR SWAP3 POP POP POP SWAP4 SWAP3 POP POP POP JUMP JUMPDEST PUSH0 DUP2 SWAP1 POP SWAP2 SWAP1 POP JUMP JUMPDEST PUSH0 PUSH2 0x91C PUSH2 0x917 PUSH2 0x912 DUP5 PUSH2 0x5CE JUMP JUMPDEST PUSH2 0x8F9 JUMP JUMPDEST PUSH2 0x5CE JUMP JUMPDEST SWAP1 POP SWAP2 SWAP1 POP JUMP JUMPDEST PUSH0 DUP2 SWAP1 POP SWAP2 SWAP1 POP JUMP JUMPDEST PUSH2 0x935 DUP4 PUSH2 0x902 JUMP JUMPDEST PUSH2 0x949 PUSH2 0x941 DUP3 PUSH2 0x923 JUMP JUMPDEST DUP5 DUP5 SLOAD PUSH2 0x8A8 JUMP JUMPDEST DUP3 SSTORE POP POP POP POP JUMP JUMPDEST PUSH0 PUSH0 SWAP1 POP SWAP1 JUMP JUMPDEST PUSH2 0x960 PUSH2 0x951 JUMP JUMPDEST PUSH2 0x96B DUP2 DUP5 DUP5 PUSH2 0x92C JUMP JUMPDEST POP POP POP JUMP JUMPDEST JUMPDEST DUP2 DUP2 LT ISZERO PUSH2 0x98E JUMPI PUSH2 0x983 PUSH0 DUP3 PUSH2 0x958 JUMP JUMPDEST PUSH1 0x1 DUP2 ADD SWAP1 POP PUSH2 0x971 JUMP JUMPDEST POP POP JUMP JUMPDEST PUSH1 0x1F DUP3 GT ISZERO PUSH2 0x9D3 JUMPI PUSH2 0x9A4 DUP2 PUSH2 0x87B JUMP JUMPDEST PUSH2 0x9AD DUP5 PUSH2 0x88D JUMP JUMPDEST DUP2 ADD PUSH1 0x20 DUP6 LT ISZERO PUSH2 0x9BC JUMPI DUP2 SWAP1 POP JUMPDEST PUSH2 0x9D0 PUSH2 0x9C8 DUP6 PUSH2 0x88D JUMP JUMPDEST DUP4 ADD DUP3 PUSH2 0x970 JUMP JUMPDEST POP POP JUMPDEST POP POP POP JUMP JUMPDEST PUSH0 DUP3 DUP3 SHR SWAP1 POP SWAP3 SWAP2 POP POP JUMP JUMPDEST PUSH0 PUSH2 0x9F3 PUSH0 NOT DUP5 PUSH1 0x8 MUL PUSH2 0x9D8 JUMP JUMPDEST NOT DUP1 DUP4 AND SWAP2 POP POP SWAP3 SWAP2 POP POP JUMP JUMPDEST PUSH0 PUSH2 0xA0B DUP4 DUP4 PUSH2 0x9E4 JUMP JUMPDEST SWAP2 POP DUP3 PUSH1 0x2 MUL DUP3 OR SWAP1 POP SWAP3 SWAP2 POP POP JUMP JUMPDEST PUSH2 0xA24 DUP3 PUSH2 0x53E JUMP JUMPDEST PUSH8 0xFFFFFFFFFFFFFFFF DUP2 GT ISZERO PUSH2 0xA3D JUMPI PUSH2 0xA3C PUSH2 0x618 JUMP JUMPDEST JUMPDEST PUSH2 0xA47 DUP3 SLOAD PUSH2 0x84B JUMP JUMPDEST PUSH2 0xA52 DUP3 DUP3 DUP6 PUSH2 0x992 JUMP JUMPDEST PUSH0 PUSH1 0x20 SWAP1 POP PUSH1 0x1F DUP4 GT PUSH1 0x1 DUP2 EQ PUSH2 0xA83 JUMPI PUSH0 DUP5 ISZERO PUSH2 0xA71 JUMPI DUP3 DUP8 ADD MLOAD SWAP1 POP JUMPDEST PUSH2 0xA7B DUP6 DUP3 PUSH2 0xA00 JUMP JUMPDEST DUP7 SSTORE POP PUSH2 0xAE2 JUMP JUMPDEST PUSH1 0x1F NOT DUP5 AND PUSH2 0xA91 DUP7 PUSH2 0x87B JUMP JUMPDEST PUSH0 JUMPDEST DUP3 DUP2 LT ISZERO PUSH2 0xAB8 JUMPI DUP5 DUP10 ADD MLOAD DUP3 SSTORE PUSH1 0x1 DUP3 ADD SWAP2 POP PUSH1 0x20 DUP6 ADD SWAP5 POP PUSH1 0x20 DUP2 ADD SWAP1 POP PUSH2 0xA93 JUMP JUMPDEST DUP7 DUP4 LT ISZERO PUSH2 0xAD5 JUMPI DUP5 DUP10 ADD MLOAD PUSH2 0xAD1 PUSH1 0x1F DUP10 AND DUP3 PUSH2 0x9E4 JUMP JUMPDEST DUP4 SSTORE POP JUMPDEST PUSH1 0x1 PUSH1 0x2 DUP9 MUL ADD DUP9 SSTORE POP POP POP JUMPDEST POP POP POP POP POP POP JUMP INVALID LOG2 PUSH5 0x6970667358 0x22 SLT KECCAK256 RETURN 0xE9 RJUMPI 0x5458 0xF SSTORE 0xE9 DUP15 0xD9 AND CALLDATALOAD SWAP11 0xC7 0xCC SAR 0xE MUL 0xC0 CREATE2 DUP9 XOR DATALOADN 0xCE8C 0x2F LT 0xB0 0x2A 0x27 0x28 RJUMPI 0x6473 PUSH16 0x6C634300081E00330000000000000000 "
				},
				"gasEstimates": {
					"creation": {
						"codeDepositCost": "569600",
						"executionCost": "598",
						"totalCost": "570198"
					},
					"external": {
						"age()": "2470",
						"college()": "infinite",
						"getAge()": "2454",
						"getCollege()": "infinite",
						"getName()": "infinite",
						"getProfession()": "infinite",
						"name()": "infinite",
						"profession()": "infinite",
						"setData(string,string,string,uint256)": "infinite"
					}
				},
				"methodIdentifiers": {
					"age()": "262a9dff",
					"college()": "38d86406",
					"getAge()": "967e6e65",
					"getCollege()": "4ba5c8ca",
					"getName()": "17d7de7c",
					"getProfession()": "9e9d17b4",
					"name()": "06fdde03",
					"profession()": "bd037c93",
					"setData(string,string,string,uint256)": "bfe0695c"
				}
			},
			"storageLayout": {
				"storage": [
					{
						"astId": 3,
						"contract": "FirstSmartContract.sol:FirstSmartContrat",
						"label": "name",
						"offset": 0,
						"slot": "0",
						"type": "t_string_storage"
					},
					{
						"astId": 5,
						"contract": "FirstSmartContract.sol:FirstSmartContrat",
						"label": "college",
						"offset": 0,
						"slot": "1",
						"type": "t_string_storage"
					},
					{
						"astId": 7,
						"contract": "FirstSmartContract.sol:FirstSmartContrat",
						"label": "profession",
						"offset": 0,
						"slot": "2",
						"type": "t_string_storage"
					},
					{
						"astId": 9,
						"contract": "FirstSmartContract.sol:FirstSmartContrat",
						"label": "age",
						"offset": 0,
						"slot": "3",
						"type": "t_uint256"
					}
				],
				"types": {
					"t_string_storage": {
						"encoding": "bytes",
						"label": "string",
						"numberOfBytes": "32"
					},
					"t_uint256": {
						"encoding": "inplace",
						"label": "uint256",
						"numberOfBytes": "32"
					}
				}
			},
			"userdoc": {
				"kind": "user",
				"methods": {},
				"version": 1
			}
		}
	}
}